{
  "_format": "hh-sol-artifact-1",
  "contractName": "ICController",
  "sourceName": "contracts/ICController.sol",
  "abi": [
    {
      "inputs": [
        {
          "internalType": "address",
          "name": "_icToken",
          "type": "address"
        },
        {
          "internalType": "address",
          "name": "_icbtcToken",
          "type": "address"
        },
        {
          "internalType": "address",
          "name": "_icautToken",
          "type": "address"
        },
        {
          "internalType": "address",
          "name": "_oracle",
          "type": "address"
        }
      ],
      "stateMutability": "nonpayable",
      "type": "constructor"
    },
    {
      "inputs": [],
      "name": "AccessControlBadConfirmation",
      "type": "error"
    },
    {
      "inputs": [
        {
          "internalType": "address",
          "name": "account",
          "type": "address"
        },
        {
          "internalType": "bytes32",
          "name": "neededRole",
          "type": "bytes32"
        }
      ],
      "name": "AccessControlUnauthorizedAccount",
      "type": "error"
    },
    {
      "inputs": [],
      "name": "ReentrancyGuardReentrantCall",
      "type": "error"
    },
    {
      "anonymous": false,
      "inputs": [
        {
          "indexed": true,
          "internalType": "address",
          "name": "from",
          "type": "address"
        },
        {
          "indexed": false,
          "internalType": "uint256",
          "name": "icAmount",
          "type": "uint256"
        },
        {
          "indexed": false,
          "internalType": "uint256",
          "name": "icbtcReturned",
          "type": "uint256"
        },
        {
          "indexed": false,
          "internalType": "uint256",
          "name": "icautReturned",
          "type": "uint256"
        }
      ],
      "name": "IcBurned",
      "type": "event"
    },
    {
      "anonymous": false,
      "inputs": [
        {
          "indexed": true,
          "internalType": "address",
          "name": "to",
          "type": "address"
        },
        {
          "indexed": false,
          "internalType": "uint256",
          "name": "icAmount",
          "type": "uint256"
        },
        {
          "indexed": false,
          "internalType": "uint256",
          "name": "icbtcAmount",
          "type": "uint256"
        },
        {
          "indexed": false,
          "internalType": "uint256",
          "name": "icautAmount",
          "type": "uint256"
        }
      ],
      "name": "IcMinted",
      "type": "event"
    },
    {
      "anonymous": false,
      "inputs": [
        {
          "indexed": true,
          "internalType": "address",
          "name": "user",
          "type": "address"
        },
        {
          "indexed": true,
          "internalType": "address",
          "name": "grantedBy",
          "type": "address"
        }
      ],
      "name": "KycGranted",
      "type": "event"
    },
    {
      "anonymous": false,
      "inputs": [
        {
          "indexed": true,
          "internalType": "address",
          "name": "user",
          "type": "address"
        },
        {
          "indexed": true,
          "internalType": "address",
          "name": "revokedBy",
          "type": "address"
        }
      ],
      "name": "KycRevoked",
      "type": "event"
    },
    {
      "anonymous": false,
      "inputs": [
        {
          "indexed": false,
          "internalType": "uint256",
          "name": "icbtcRatio",
          "type": "uint256"
        },
        {
          "indexed": false,
          "internalType": "uint256",
          "name": "icautRatio",
          "type": "uint256"
        },
        {
          "indexed": true,
          "internalType": "address",
          "name": "updatedBy",
          "type": "address"
        }
      ],
      "name": "ReserveRatiosUpdated",
      "type": "event"
    },
    {
      "anonymous": false,
      "inputs": [
        {
          "indexed": false,
          "internalType": "uint256",
          "name": "icbtcAmount",
          "type": "uint256"
        },
        {
          "indexed": false,
          "internalType": "uint256",
          "name": "icautAmount",
          "type": "uint256"
        },
        {
          "indexed": true,
          "internalType": "address",
          "name": "minter",
          "type": "address"
        }
      ],
      "name": "ReserveTokensMinted",
      "type": "event"
    },
    {
      "anonymous": false,
      "inputs": [
        {
          "indexed": true,
          "internalType": "bytes32",
          "name": "role",
          "type": "bytes32"
        },
        {
          "indexed": true,
          "internalType": "bytes32",
          "name": "previousAdminRole",
          "type": "bytes32"
        },
        {
          "indexed": true,
          "internalType": "bytes32",
          "name": "newAdminRole",
          "type": "bytes32"
        }
      ],
      "name": "RoleAdminChanged",
      "type": "event"
    },
    {
      "anonymous": false,
      "inputs": [
        {
          "indexed": true,
          "internalType": "bytes32",
          "name": "role",
          "type": "bytes32"
        },
        {
          "indexed": true,
          "internalType": "address",
          "name": "account",
          "type": "address"
        },
        {
          "indexed": true,
          "internalType": "address",
          "name": "sender",
          "type": "address"
        }
      ],
      "name": "RoleGranted",
      "type": "event"
    },
    {
      "anonymous": false,
      "inputs": [
        {
          "indexed": true,
          "internalType": "bytes32",
          "name": "role",
          "type": "bytes32"
        },
        {
          "indexed": true,
          "internalType": "address",
          "name": "account",
          "type": "address"
        },
        {
          "indexed": true,
          "internalType": "address",
          "name": "sender",
          "type": "address"
        }
      ],
      "name": "RoleRevoked",
      "type": "event"
    },
    {
      "inputs": [],
      "name": "BASIS_POINTS",
      "outputs": [
        {
          "internalType": "uint256",
          "name": "",
          "type": "uint256"
        }
      ],
      "stateMutability": "view",
      "type": "function"
    },
    {
      "inputs": [],
      "name": "DEFAULT_ADMIN_ROLE",
      "outputs": [
        {
          "internalType": "bytes32",
          "name": "",
          "type": "bytes32"
        }
      ],
      "stateMutability": "view",
      "type": "function"
    },
    {
      "inputs": [],
      "name": "ICAUT_RESERVE_RATIO",
      "outputs": [
        {
          "internalType": "uint256",
          "name": "",
          "type": "uint256"
        }
      ],
      "stateMutability": "view",
      "type": "function"
    },
    {
      "inputs": [],
      "name": "ICBTC_RESERVE_RATIO",
      "outputs": [
        {
          "internalType": "uint256",
          "name": "",
          "type": "uint256"
        }
      ],
      "stateMutability": "view",
      "type": "function"
    },
    {
      "inputs": [],
      "name": "RESERVE_MANAGER_ROLE",
      "outputs": [
        {
          "internalType": "bytes32",
          "name": "",
          "type": "bytes32"
        }
      ],
      "stateMutability": "view",
      "type": "function"
    },
    {
      "inputs": [
        {
          "internalType": "address[]",
          "name": "_users",
          "type": "address[]"
        }
      ],
      "name": "batchGrantKyc",
      "outputs": [],
      "stateMutability": "nonpayable",
      "type": "function"
    },
    {
      "inputs": [
        {
          "internalType": "address",
          "name": "_from",
          "type": "address"
        },
        {
          "internalType": "uint256",
          "name": "_icAmount",
          "type": "uint256"
        }
      ],
      "name": "burnIc",
      "outputs": [],
      "stateMutability": "nonpayable",
      "type": "function"
    },
    {
      "inputs": [],
      "name": "getAvailableReserves",
      "outputs": [
        {
          "internalType": "uint256",
          "name": "availableIcbtc",
          "type": "uint256"
        },
        {
          "internalType": "uint256",
          "name": "availableIcaut",
          "type": "uint256"
        }
      ],
      "stateMutability": "view",
      "type": "function"
    },
    {
      "inputs": [],
      "name": "getCurrentIcValue",
      "outputs": [
        {
          "internalType": "uint256",
          "name": "",
          "type": "uint256"
        }
      ],
      "stateMutability": "view",
      "type": "function"
    },
    {
      "inputs": [],
      "name": "getReserveInfo",
      "outputs": [
        {
          "internalType": "uint256",
          "name": "icbtcReserves",
          "type": "uint256"
        },
        {
          "internalType": "uint256",
          "name": "icautReserves",
          "type": "uint256"
        },
        {
          "internalType": "uint256",
          "name": "totalMinted",
          "type": "uint256"
        }
      ],
      "stateMutability": "view",
      "type": "function"
    },
    {
      "inputs": [],
      "name": "getReserveRatios",
      "outputs": [
        {
          "internalType": "uint256",
          "name": "icbtcRatio",
          "type": "uint256"
        },
        {
          "internalType": "uint256",
          "name": "icautRatio",
          "type": "uint256"
        },
        {
          "internalType": "uint256",
          "name": "basisPoints",
          "type": "uint256"
        }
      ],
      "stateMutability": "pure",
      "type": "function"
    },
    {
      "inputs": [
        {
          "internalType": "bytes32",
          "name": "role",
          "type": "bytes32"
        }
      ],
      "name": "getRoleAdmin",
      "outputs": [
        {
          "internalType": "bytes32",
          "name": "",
          "type": "bytes32"
        }
      ],
      "stateMutability": "view",
      "type": "function"
    },
    {
      "inputs": [],
      "name": "getTotalReserveValue",
      "outputs": [
        {
          "internalType": "uint256",
          "name": "",
          "type": "uint256"
        }
      ],
      "stateMutability": "view",
      "type": "function"
    },
    {
      "inputs": [
        {
          "internalType": "address",
          "name": "_user",
          "type": "address"
        }
      ],
      "name": "grantKyc",
      "outputs": [],
      "stateMutability": "nonpayable",
      "type": "function"
    },
    {
      "inputs": [
        {
          "internalType": "bytes32",
          "name": "role",
          "type": "bytes32"
        },
        {
          "internalType": "address",
          "name": "account",
          "type": "address"
        }
      ],
      "name": "grantRole",
      "outputs": [],
      "stateMutability": "nonpayable",
      "type": "function"
    },
    {
      "inputs": [
        {
          "internalType": "bytes32",
          "name": "role",
          "type": "bytes32"
        },
        {
          "internalType": "address",
          "name": "account",
          "type": "address"
        }
      ],
      "name": "hasRole",
      "outputs": [
        {
          "internalType": "bool",
          "name": "",
          "type": "bool"
        }
      ],
      "stateMutability": "view",
      "type": "function"
    },
    {
      "inputs": [],
      "name": "icToken",
      "outputs": [
        {
          "internalType": "contract IIC",
          "name": "",
          "type": "address"
        }
      ],
      "stateMutability": "view",
      "type": "function"
    },
    {
      "inputs": [],
      "name": "icautToken",
      "outputs": [
        {
          "internalType": "contract IReserveToken",
          "name": "",
          "type": "address"
        }
      ],
      "stateMutability": "view",
      "type": "function"
    },
    {
      "inputs": [],
      "name": "icbtcToken",
      "outputs": [
        {
          "internalType": "contract IReserveToken",
          "name": "",
          "type": "address"
        }
      ],
      "stateMutability": "view",
      "type": "function"
    },
    {
      "inputs": [
        {
          "internalType": "address",
          "name": "",
          "type": "address"
        }
      ],
      "name": "isKycPassed",
      "outputs": [
        {
          "internalType": "bool",
          "name": "",
          "type": "bool"
        }
      ],
      "stateMutability": "view",
      "type": "function"
    },
    {
      "inputs": [
        {
          "internalType": "address",
          "name": "_to",
          "type": "address"
        },
        {
          "internalType": "uint256",
          "name": "_icAmount",
          "type": "uint256"
        }
      ],
      "name": "mintBackedIc",
      "outputs": [],
      "stateMutability": "nonpayable",
      "type": "function"
    },
    {
      "inputs": [],
      "name": "oracle",
      "outputs": [
        {
          "internalType": "contract IMockOracle",
          "name": "",
          "type": "address"
        }
      ],
      "stateMutability": "view",
      "type": "function"
    },
    {
      "inputs": [
        {
          "internalType": "uint256",
          "name": "_icbtcAmount",
          "type": "uint256"
        },
        {
          "internalType": "uint256",
          "name": "_icautAmount",
          "type": "uint256"
        }
      ],
      "name": "preMintReserves",
      "outputs": [],
      "stateMutability": "nonpayable",
      "type": "function"
    },
    {
      "inputs": [
        {
          "internalType": "bytes32",
          "name": "role",
          "type": "bytes32"
        },
        {
          "internalType": "address",
          "name": "callerConfirmation",
          "type": "address"
        }
      ],
      "name": "renounceRole",
      "outputs": [],
      "stateMutability": "nonpayable",
      "type": "function"
    },
    {
      "inputs": [
        {
          "internalType": "address",
          "name": "_user",
          "type": "address"
        }
      ],
      "name": "revokeKyc",
      "outputs": [],
      "stateMutability": "nonpayable",
      "type": "function"
    },
    {
      "inputs": [
        {
          "internalType": "bytes32",
          "name": "role",
          "type": "bytes32"
        },
        {
          "internalType": "address",
          "name": "account",
          "type": "address"
        }
      ],
      "name": "revokeRole",
      "outputs": [],
      "stateMutability": "nonpayable",
      "type": "function"
    },
    {
      "inputs": [
        {
          "internalType": "bytes4",
          "name": "interfaceId",
          "type": "bytes4"
        }
      ],
      "name": "supportsInterface",
      "outputs": [
        {
          "internalType": "bool",
          "name": "",
          "type": "bool"
        }
      ],
      "stateMutability": "view",
      "type": "function"
    },
    {
      "inputs": [],
      "name": "totalIcMinted",
      "outputs": [
        {
          "internalType": "uint256",
          "name": "",
          "type": "uint256"
        }
      ],
      "stateMutability": "view",
      "type": "function"
    },
    {
      "inputs": [],
      "name": "totalIcautReserves",
      "outputs": [
        {
          "internalType": "uint256",
          "name": "",
          "type": "uint256"
        }
      ],
      "stateMutability": "view",
      "type": "function"
    },
    {
      "inputs": [],
      "name": "totalIcbtcReserves",
      "outputs": [
        {
          "internalType": "uint256",
          "name": "",
          "type": "uint256"
        }
      ],
      "stateMutability": "view",
      "type": "function"
    }
  ],
  "bytecode": "0x60806040523480156200001157600080fd5b506040516200225e3803806200225e833981016040819052620000349162000326565b600180556001600160a01b038416620000aa5760405162461bcd60e51b815260206004820152602d60248201527f4943436f6e74726f6c6c65723a20494320746f6b656e2063616e6e6f7420626560448201526c207a65726f206164647265737360981b60648201526084015b60405180910390fd5b6001600160a01b0383166200011b5760405162461bcd60e51b815260206004820152603060248201527f4943436f6e74726f6c6c65723a20494342544320746f6b656e2063616e6e6f7460448201526f206265207a65726f206164647265737360801b6064820152608401620000a1565b6001600160a01b0382166200018c5760405162461bcd60e51b815260206004820152603060248201527f4943436f6e74726f6c6c65723a20494341555420746f6b656e2063616e6e6f7460448201526f206265207a65726f206164647265737360801b6064820152608401620000a1565b6001600160a01b038116620001f85760405162461bcd60e51b815260206004820152602b60248201527f4943436f6e74726f6c6c65723a204f7261636c652063616e6e6f74206265207a60448201526a65726f206164647265737360a81b6064820152608401620000a1565b620002056000336200025a565b50600380546001600160a01b039586166001600160a01b031991821617909155600480549486169482169490941790935560058054928516928416929092179091556006805491909316911617905562000383565b6000828152602081815260408083206001600160a01b038516845290915281205460ff16620002ff576000838152602081815260408083206001600160a01b03861684529091529020805460ff19166001179055620002b63390565b6001600160a01b0316826001600160a01b0316847f2f8788117e7eff1d82e926ec794901d17c78024a50270940304540a733656f0d60405160405180910390a450600162000303565b5060005b92915050565b80516001600160a01b03811681146200032157600080fd5b919050565b600080600080608085870312156200033d57600080fd5b620003488562000309565b9350620003586020860162000309565b9250620003686040860162000309565b9150620003786060860162000309565b905092959194509250565b611ecb80620003936000396000f3fe608060405234801561001057600080fd5b50600436106101da5760003560e01c80637dc0d1d011610104578063bef49813116100a2578063e04bcbd111610071578063e04bcbd1146103f5578063e1f1c4a714610408578063e63d589614610411578063ffe777bd1461042457600080fd5b8063bef49813146103b1578063c5f87257146103c4578063cc529c7c146103d9578063d547741f146103e257600080fd5b80639830568b116100de5780639830568b1461036a578063a217fddf1461037d578063a6ca791314610385578063b08ab2451461038e57600080fd5b80637dc0d1d01461033b5780637f2329721461034e57806391d148541461035757600080fd5b80632f2ff15d1161017c5780635c978b2f1161014b5780635c978b2f146102f05780635f470c701461030d578063713293ad146103205780637b5a388c1461032857600080fd5b80632f2ff15d1461029d5780633323c85d146102b057806336568abe146102d55780633e809390146102e857600080fd5b8063248a9ca3116101b8578063248a9ca31461022f578063276f212e146102605780632c245aae146102695780632ccb62a91461029457600080fd5b806301ffc9a7146101df57806312283191146102075780631455caea1461021c575b600080fd5b6101f26101ed366004611b6b565b610432565b60405190151581526020015b60405180910390f35b61021a610215366004611bb8565b610469565b005b61021a61022a366004611bd3565b61057a565b61025261023d366004611c48565b60009081526020819052604090206001015490565b6040519081526020016101fe565b61025260095481565b60055461027c906001600160a01b031681565b6040516001600160a01b0390911681526020016101fe565b610252610fa081565b61021a6102ab366004611c61565b610673565b610fa06117706127105b604080519384526020840192909252908201526060016101fe565b61021a6102e3366004611c61565b610698565b6102526106d0565b6102f86108a6565b604080519283526020830191909152016101fe565b60045461027c906001600160a01b031681565b6102526109d4565b61021a610336366004611c8d565b610a1f565b60065461027c906001600160a01b031681565b61025261177081565b6101f2610365366004611c61565b610bcf565b60035461027c906001600160a01b031681565b610252600081565b61025260085481565b6101f261039c366004611bb8565b60026020526000908152604090205460ff1681565b61021a6103bf366004611bb8565b610bf8565b610252600080516020611e7683398151915281565b61025260075481565b61021a6103f0366004611c61565b610c85565b61021a610403366004611caf565b610caa565b61025261271081565b61021a61041f366004611caf565b6112d7565b6007546008546009546102ba565b60006001600160e01b03198216637965db0b60e01b148061046357506301ffc9a760e01b6001600160e01b03198316145b92915050565b600080516020611e76833981519152610481816119fa565b6001600160a01b0382166104f65760405162461bcd60e51b815260206004820152603160248201527f4943436f6e74726f6c6c65723a2043616e6e6f74207265766f6b65204b59432060448201527066726f6d207a65726f206164647265737360781b60648201526084015b60405180910390fd5b6001600160a01b03821660009081526002602052604090205460ff1661052e5760405162461bcd60e51b81526004016104ed90611cd9565b6001600160a01b038216600081815260026020526040808220805460ff19169055513392917f5d9279616441228548cfb67f31b7b9b131fd30de1b3c54a6dd0062a74ce638a691a35050565b600080516020611e76833981519152610592816119fa565b60005b8281101561066d5760008484838181106105b1576105b1611d1c565b90506020020160208101906105c69190611bb8565b90506001600160a01b0381166105ee5760405162461bcd60e51b81526004016104ed90611d32565b6001600160a01b03811660009081526002602052604090205460ff1661065a576001600160a01b038116600081815260026020526040808220805460ff19166001179055513392917f0cc42ba172587888529a0b89cc75bd6914b337cf10757fd80e3246330e55ad9491a35b508061066581611d96565b915050610595565b50505050565b60008281526020819052604090206001015461068e816119fa565b61066d8383611a07565b6001600160a01b03811633146106c15760405163334bd91960e11b815260040160405180910390fd5b6106cb8282611a99565b505050565b600080600660009054906101000a90046001600160a01b03166001600160a01b031663a8ad52d16040518163ffffffff1660e01b8152600401602060405180830381865afa158015610726573d6000803e3d6000fd5b505050506040513d601f19601f8201168201806040525081019061074a9190611daf565b90506000600660009054906101000a90046001600160a01b03166001600160a01b031663445014046040518163ffffffff1660e01b8152600401602060405180830381865afa1580156107a1573d6000803e3d6000fd5b505050506040513d601f19601f820116820180604052508101906107c59190611daf565b90506000821180156107d75750600081115b6108495760405162461bcd60e51b815260206004820152603960248201527f4943436f6e74726f6c6c65723a20496e76616c6964206f7261636c652070726960448201527f63657320666f7220726573657276652076616c756174696f6e0000000000000060648201526084016104ed565b6000670de0b6b3a7640000836007546108629190611dc8565b61086c9190611ddf565b90506000670de0b6b3a7640000836008546108879190611dc8565b6108919190611ddf565b905061089d8183611e01565b94505050505090565b600480546040516370a0823160e01b81523092810192909252600091829182916001600160a01b03909116906370a0823190602401602060405180830381865afa1580156108f8573d6000803e3d6000fd5b505050506040513d601f19601f8201168201806040525081019061091c9190611daf565b6005546040516370a0823160e01b81523060048201529192506000916001600160a01b03909116906370a0823190602401602060405180830381865afa15801561096a573d6000803e3d6000fd5b505050506040513d601f19601f8201168201806040525081019061098e9190611daf565b905060075482116109a05760006109ad565b6007546109ad9083611e14565b935060085481116109bf5760006109cc565b6008546109cc9082611e14565b925050509091565b60006009546000036109ed5750670de0b6b3a764000090565b60006109f76106d0565b600954909150610a0f82670de0b6b3a7640000611dc8565b610a199190611ddf565b91505090565b600080516020611e76833981519152610a37816119fa565b6000831180610a465750600082115b610ab85760405162461bcd60e51b815260206004820152603b60248201527f4943436f6e74726f6c6c65723a204174206c65617374206f6e6520616d6f756e60448201527f74206d7573742062652067726561746572207468616e207a65726f000000000060648201526084016104ed565b8215610b2457600480546040516340c10f1960e01b81523092810192909252602482018590526001600160a01b0316906340c10f1990604401600060405180830381600087803b158015610b0b57600080fd5b505af1158015610b1f573d6000803e3d6000fd5b505050505b8115610b8f576005546040516340c10f1960e01b8152306004820152602481018490526001600160a01b03909116906340c10f1990604401600060405180830381600087803b158015610b7657600080fd5b505af1158015610b8a573d6000803e3d6000fd5b505050505b604080518481526020810184905233917f1f19fc6bbbbba890ec341702810826ca43998d9ffb839740fceb91c29d29ebe6910160405180910390a2505050565b6000918252602082815260408084206001600160a01b0393909316845291905290205460ff1690565b600080516020611e76833981519152610c10816119fa565b6001600160a01b038216610c365760405162461bcd60e51b81526004016104ed90611d32565b6001600160a01b038216600081815260026020526040808220805460ff19166001179055513392917f0cc42ba172587888529a0b89cc75bd6914b337cf10757fd80e3246330e55ad9491a35050565b600082815260208190526040902060010154610ca0816119fa565b61066d8383611a99565b600080516020611e76833981519152610cc2816119fa565b610cca611b04565b6001600160a01b038316610d325760405162461bcd60e51b815260206004820152602960248201527f4943436f6e74726f6c6c65723a2043616e6e6f74206d696e7420746f207a65726044820152686f206164647265737360b81b60648201526084016104ed565b60008211610d525760405162461bcd60e51b81526004016104ed90611e27565b6001600160a01b03831660009081526002602052604090205460ff16610dcb5760405162461bcd60e51b815260206004820152602860248201527f4943436f6e74726f6c6c65723a20526563697069656e74206e6f74204b594320604482015267185c1c1c9bdd995960c21b60648201526084016104ed565b6006546040805163a8ad52d160e01b815290516000926001600160a01b03169163a8ad52d19160048083019260209291908290030181865afa158015610e15573d6000803e3d6000fd5b505050506040513d601f19601f82011682018060405250810190610e399190611daf565b90506000600660009054906101000a90046001600160a01b03166001600160a01b031663445014046040518163ffffffff1660e01b8152600401602060405180830381865afa158015610e90573d6000803e3d6000fd5b505050506040513d601f19601f82011682018060405250810190610eb49190611daf565b9050600082118015610ec65750600081115b610f1e5760405162461bcd60e51b815260206004820152602360248201527f4943436f6e74726f6c6c65723a20496e76616c6964206f7261636c652070726960448201526263657360e81b60648201526084016104ed565b836000612710610f30610fa084611dc8565b610f3a9190611ddf565b90506000612710610f4d61177085611dc8565b610f579190611ddf565b9050600085610f6e84670de0b6b3a7640000611dc8565b610f789190611ddf565b9050600085610f8f84670de0b6b3a7640000611dc8565b610f999190611ddf565b600480546040516370a0823160e01b815230928101929092529192506000916001600160a01b0316906370a0823190602401602060405180830381865afa158015610fe8573d6000803e3d6000fd5b505050506040513d601f19601f8201168201806040525081019061100c9190611daf565b6005546040516370a0823160e01b81523060048201529192506000916001600160a01b03909116906370a0823190602401602060405180830381865afa15801561105a573d6000803e3d6000fd5b505050506040513d601f19601f8201168201806040525081019061107e9190611daf565b90506000600754831161109257600061109f565b60075461109f9084611e14565b9050600060085483116110b35760006110c0565b6008546110c09084611e14565b90508582101561112e5760405162461bcd60e51b815260206004820152603360248201527f4943436f6e74726f6c6c65723a20496e73756666696369656e7420617661696c60448201527261626c6520494342544320726573657276657360681b60648201526084016104ed565b8481101561119a5760405162461bcd60e51b815260206004820152603360248201527f4943436f6e74726f6c6c65723a20496e73756666696369656e7420617661696c60448201527261626c6520494341555420726573657276657360681b60648201526084016104ed565b85600760008282546111ac9190611e01565b9250508190555084600860008282546111c59190611e01565b925050819055508c600960008282546111de9190611e01565b92505081905550600360009054906101000a90046001600160a01b03166001600160a01b03166340c10f198f8f6040518363ffffffff1660e01b815260040161123c9291906001600160a01b03929092168252602082015260400190565b600060405180830381600087803b15801561125657600080fd5b505af115801561126a573d6000803e3d6000fd5b505050508d6001600160a01b03167e04435174674f6176a86674a2121fbc441463e65505dfcfcc98006ba620463b8e88886040516112bb939291909283526020830191909152604082015260600190565b60405180910390a250505050505050505050506106cb60018055565b600080516020611e768339815191526112ef816119fa565b6112f7611b04565b6001600160a01b0383166113615760405162461bcd60e51b815260206004820152602b60248201527f4943436f6e74726f6c6c65723a2043616e6e6f74206275726e2066726f6d207a60448201526a65726f206164647265737360a81b60648201526084016104ed565b600082116113815760405162461bcd60e51b81526004016104ed90611e27565b6001600160a01b03831660009081526002602052604090205460ff166113b95760405162461bcd60e51b81526004016104ed90611cd9565b6003546040516370a0823160e01b81526001600160a01b038581166004830152849216906370a0823190602401602060405180830381865afa158015611403573d6000803e3d6000fd5b505050506040513d601f19601f820116820180604052508101906114279190611daf565b10156114835760405162461bcd60e51b815260206004820152602560248201527f4943436f6e74726f6c6c65723a20496e73756666696369656e742049432062616044820152646c616e636560d81b60648201526084016104ed565b8160095410156114ee5760405162461bcd60e51b815260206004820152603060248201527f4943436f6e74726f6c6c65723a2043616e6e6f74206275726e206d6f7265207460448201526f1a185b881d1bdd185b081b5a5b9d195960821b60648201526084016104ed565b6000600954116115595760405162461bcd60e51b815260206004820152603060248201527f4943436f6e74726f6c6c65723a204e6f20494320746f6b656e7320657869737460448201526f081d1bc8189d5c9b881859d85a5b9cdd60821b60648201526084016104ed565b60006009548360075461156c9190611dc8565b6115769190611ddf565b905060006009548460085461158b9190611dc8565b6115959190611ddf565b905081600760008282546115a99190611e14565b9250508190555080600860008282546115c29190611e14565b9250508190555083600960008282546115db9190611e14565b909155505060035460405163079cc67960e41b81526001600160a01b03878116600483015260248201879052909116906379cc679090604401600060405180830381600087803b15801561162e57600080fd5b505af1158015611642573d6000803e3d6000fd5b5050505060008211156117fa57600480546040516370a0823160e01b8152309281019290925283916001600160a01b03909116906370a0823190602401602060405180830381865afa15801561169c573d6000803e3d6000fd5b505050506040513d601f19601f820116820180604052508101906116c09190611daf565b101561172c5760405162461bcd60e51b815260206004820152603560248201527f4943436f6e74726f6c6c65723a20496e73756666696369656e74204943425443604482015274081c995cd95c9d995cc81a5b8818dbdb9d1c9858dd605a1b60648201526084016104ed565b6004805460405163079cc67960e41b81523092810192909252602482018490526001600160a01b0316906379cc679090604401600060405180830381600087803b15801561177957600080fd5b505af115801561178d573d6000803e3d6000fd5b5050600480546040516340c10f1960e01b81526001600160a01b038a81169382019390935260248101879052911692506340c10f199150604401600060405180830381600087803b1580156117e157600080fd5b505af11580156117f5573d6000803e3d6000fd5b505050505b80156119a3576005546040516370a0823160e01b815230600482015282916001600160a01b0316906370a0823190602401602060405180830381865afa158015611848573d6000803e3d6000fd5b505050506040513d601f19601f8201168201806040525081019061186c9190611daf565b10156118d85760405162461bcd60e51b815260206004820152603560248201527f4943436f6e74726f6c6c65723a20496e73756666696369656e74204943415554604482015274081c995cd95c9d995cc81a5b8818dbdb9d1c9858dd605a1b60648201526084016104ed565b60055460405163079cc67960e41b8152306004820152602481018390526001600160a01b03909116906379cc679090604401600060405180830381600087803b15801561192457600080fd5b505af1158015611938573d6000803e3d6000fd5b50506005546040516340c10f1960e01b81526001600160a01b0389811660048301526024820186905290911692506340c10f199150604401600060405180830381600087803b15801561198a57600080fd5b505af115801561199e573d6000803e3d6000fd5b505050505b60408051858152602081018490529081018290526001600160a01b038616907f97e8dddf0fafd54bd9444ffdef5beb4c6fa2e55787819c2c9a2f06ebbecaf1d09060600160405180910390a250506106cb60018055565b611a048133611b2e565b50565b6000611a138383610bcf565b611a91576000838152602081815260408083206001600160a01b03861684529091529020805460ff19166001179055611a493390565b6001600160a01b0316826001600160a01b0316847f2f8788117e7eff1d82e926ec794901d17c78024a50270940304540a733656f0d60405160405180910390a4506001610463565b506000610463565b6000611aa58383610bcf565b15611a91576000838152602081815260408083206001600160a01b0386168085529252808320805460ff1916905551339286917ff6391f5c32d9c69d2a47ea670b442974b53935d1edc7fd64eb21e047a839171b9190a4506001610463565b600260015403611b2757604051633ee5aeb560e01b815260040160405180910390fd5b6002600155565b611b388282610bcf565b611b675760405163e2517d3f60e01b81526001600160a01b0382166004820152602481018390526044016104ed565b5050565b600060208284031215611b7d57600080fd5b81356001600160e01b031981168114611b9557600080fd5b9392505050565b80356001600160a01b0381168114611bb357600080fd5b919050565b600060208284031215611bca57600080fd5b611b9582611b9c565b60008060208385031215611be657600080fd5b823567ffffffffffffffff80821115611bfe57600080fd5b818501915085601f830112611c1257600080fd5b813581811115611c2157600080fd5b8660208260051b8501011115611c3657600080fd5b60209290920196919550909350505050565b600060208284031215611c5a57600080fd5b5035919050565b60008060408385031215611c7457600080fd5b82359150611c8460208401611b9c565b90509250929050565b60008060408385031215611ca057600080fd5b50508035926020909101359150565b60008060408385031215611cc257600080fd5b611ccb83611b9c565b946020939093013593505050565b60208082526023908201527f4943436f6e74726f6c6c65723a2055736572206e6f74204b594320617070726f6040820152621d995960ea1b606082015260800190565b634e487b7160e01b600052603260045260246000fd5b6020808252602e908201527f4943436f6e74726f6c6c65723a2043616e6e6f74206772616e74204b5943207460408201526d6f207a65726f206164647265737360901b606082015260800190565b634e487b7160e01b600052601160045260246000fd5b600060018201611da857611da8611d80565b5060010190565b600060208284031215611dc157600080fd5b5051919050565b808202811582820484141761046357610463611d80565b600082611dfc57634e487b7160e01b600052601260045260246000fd5b500490565b8082018082111561046357610463611d80565b8181038181111561046357610463611d80565b6020808252602e908201527f4943436f6e74726f6c6c65723a20416d6f756e74206d7573742062652067726560408201526d61746572207468616e207a65726f60901b60608201526080019056fecc938097bd07c9f1619d5e95c26b457140e80b889795c7c1cbd51a28005e02aca26469706673582212205c2d93eb1d15a19866d596313fd019081bdcf1240946e3e57798820f1333010164736f6c63430008140033",
  "linkReferences": {},
  "deployedLinkReferences": {}
}