{
  "_format": "hh-sol-artifact-1",
  "contractName": "ICGOVT",
  "sourceName": "contracts/ICGOVT.sol",
  "abi": [
    {
      "inputs": [
        {
          "internalType": "string",
          "name": "_name",
          "type": "string"
        },
        {
          "internalType": "string",
          "name": "_symbol",
          "type": "string"
        }
      ],
      "stateMutability": "nonpayable",
      "type": "constructor"
    },
    {
      "inputs": [],
      "name": "AccessControlBadConfirmation",
      "type": "error"
    },
    {
      "inputs": [
        {
          "internalType": "address",
          "name": "account",
          "type": "address"
        },
        {
          "internalType": "bytes32",
          "name": "neededRole",
          "type": "bytes32"
        }
      ],
      "name": "AccessControlUnauthorizedAccount",
      "type": "error"
    },
    {
      "inputs": [
        {
          "internalType": "address",
          "name": "spender",
          "type": "address"
        },
        {
          "internalType": "uint256",
          "name": "allowance",
          "type": "uint256"
        },
        {
          "internalType": "uint256",
          "name": "needed",
          "type": "uint256"
        }
      ],
      "name": "ERC20InsufficientAllowance",
      "type": "error"
    },
    {
      "inputs": [
        {
          "internalType": "address",
          "name": "sender",
          "type": "address"
        },
        {
          "internalType": "uint256",
          "name": "balance",
          "type": "uint256"
        },
        {
          "internalType": "uint256",
          "name": "needed",
          "type": "uint256"
        }
      ],
      "name": "ERC20InsufficientBalance",
      "type": "error"
    },
    {
      "inputs": [
        {
          "internalType": "address",
          "name": "approver",
          "type": "address"
        }
      ],
      "name": "ERC20InvalidApprover",
      "type": "error"
    },
    {
      "inputs": [
        {
          "internalType": "address",
          "name": "receiver",
          "type": "address"
        }
      ],
      "name": "ERC20InvalidReceiver",
      "type": "error"
    },
    {
      "inputs": [
        {
          "internalType": "address",
          "name": "sender",
          "type": "address"
        }
      ],
      "name": "ERC20InvalidSender",
      "type": "error"
    },
    {
      "inputs": [
        {
          "internalType": "address",
          "name": "spender",
          "type": "address"
        }
      ],
      "name": "ERC20InvalidSpender",
      "type": "error"
    },
    {
      "anonymous": false,
      "inputs": [
        {
          "indexed": true,
          "internalType": "address",
          "name": "owner",
          "type": "address"
        },
        {
          "indexed": true,
          "internalType": "address",
          "name": "spender",
          "type": "address"
        },
        {
          "indexed": false,
          "internalType": "uint256",
          "name": "value",
          "type": "uint256"
        }
      ],
      "name": "Approval",
      "type": "event"
    },
    {
      "anonymous": false,
      "inputs": [
        {
          "indexed": true,
          "internalType": "address",
          "name": "to",
          "type": "address"
        },
        {
          "indexed": false,
          "internalType": "uint256",
          "name": "amount",
          "type": "uint256"
        },
        {
          "indexed": true,
          "internalType": "address",
          "name": "minter",
          "type": "address"
        }
      ],
      "name": "GovernanceTokensMinted",
      "type": "event"
    },
    {
      "anonymous": false,
      "inputs": [
        {
          "indexed": true,
          "internalType": "bytes32",
          "name": "role",
          "type": "bytes32"
        },
        {
          "indexed": true,
          "internalType": "bytes32",
          "name": "previousAdminRole",
          "type": "bytes32"
        },
        {
          "indexed": true,
          "internalType": "bytes32",
          "name": "newAdminRole",
          "type": "bytes32"
        }
      ],
      "name": "RoleAdminChanged",
      "type": "event"
    },
    {
      "anonymous": false,
      "inputs": [
        {
          "indexed": true,
          "internalType": "bytes32",
          "name": "role",
          "type": "bytes32"
        },
        {
          "indexed": true,
          "internalType": "address",
          "name": "account",
          "type": "address"
        },
        {
          "indexed": true,
          "internalType": "address",
          "name": "sender",
          "type": "address"
        }
      ],
      "name": "RoleGranted",
      "type": "event"
    },
    {
      "anonymous": false,
      "inputs": [
        {
          "indexed": true,
          "internalType": "bytes32",
          "name": "role",
          "type": "bytes32"
        },
        {
          "indexed": true,
          "internalType": "address",
          "name": "account",
          "type": "address"
        },
        {
          "indexed": true,
          "internalType": "address",
          "name": "sender",
          "type": "address"
        }
      ],
      "name": "RoleRevoked",
      "type": "event"
    },
    {
      "anonymous": false,
      "inputs": [
        {
          "indexed": true,
          "internalType": "address",
          "name": "from",
          "type": "address"
        },
        {
          "indexed": true,
          "internalType": "address",
          "name": "to",
          "type": "address"
        },
        {
          "indexed": false,
          "internalType": "uint256",
          "name": "value",
          "type": "uint256"
        }
      ],
      "name": "Transfer",
      "type": "event"
    },
    {
      "inputs": [],
      "name": "DEFAULT_ADMIN_ROLE",
      "outputs": [
        {
          "internalType": "bytes32",
          "name": "",
          "type": "bytes32"
        }
      ],
      "stateMutability": "view",
      "type": "function"
    },
    {
      "inputs": [],
      "name": "MINTER_ROLE",
      "outputs": [
        {
          "internalType": "bytes32",
          "name": "",
          "type": "bytes32"
        }
      ],
      "stateMutability": "view",
      "type": "function"
    },
    {
      "inputs": [
        {
          "internalType": "address",
          "name": "owner",
          "type": "address"
        },
        {
          "internalType": "address",
          "name": "spender",
          "type": "address"
        }
      ],
      "name": "allowance",
      "outputs": [
        {
          "internalType": "uint256",
          "name": "",
          "type": "uint256"
        }
      ],
      "stateMutability": "view",
      "type": "function"
    },
    {
      "inputs": [
        {
          "internalType": "address",
          "name": "spender",
          "type": "address"
        },
        {
          "internalType": "uint256",
          "name": "value",
          "type": "uint256"
        }
      ],
      "name": "approve",
      "outputs": [
        {
          "internalType": "bool",
          "name": "",
          "type": "bool"
        }
      ],
      "stateMutability": "nonpayable",
      "type": "function"
    },
    {
      "inputs": [
        {
          "internalType": "address",
          "name": "account",
          "type": "address"
        }
      ],
      "name": "balanceOf",
      "outputs": [
        {
          "internalType": "uint256",
          "name": "",
          "type": "uint256"
        }
      ],
      "stateMutability": "view",
      "type": "function"
    },
    {
      "inputs": [
        {
          "internalType": "address[]",
          "name": "recipients",
          "type": "address[]"
        },
        {
          "internalType": "uint256[]",
          "name": "amounts",
          "type": "uint256[]"
        }
      ],
      "name": "batchMint",
      "outputs": [],
      "stateMutability": "nonpayable",
      "type": "function"
    },
    {
      "inputs": [],
      "name": "decimals",
      "outputs": [
        {
          "internalType": "uint8",
          "name": "",
          "type": "uint8"
        }
      ],
      "stateMutability": "view",
      "type": "function"
    },
    {
      "inputs": [
        {
          "internalType": "bytes32",
          "name": "role",
          "type": "bytes32"
        }
      ],
      "name": "getRoleAdmin",
      "outputs": [
        {
          "internalType": "bytes32",
          "name": "",
          "type": "bytes32"
        }
      ],
      "stateMutability": "view",
      "type": "function"
    },
    {
      "inputs": [
        {
          "internalType": "address",
          "name": "account",
          "type": "address"
        }
      ],
      "name": "getVotingPower",
      "outputs": [
        {
          "internalType": "uint256",
          "name": "",
          "type": "uint256"
        }
      ],
      "stateMutability": "view",
      "type": "function"
    },
    {
      "inputs": [
        {
          "internalType": "bytes32",
          "name": "role",
          "type": "bytes32"
        },
        {
          "internalType": "address",
          "name": "account",
          "type": "address"
        }
      ],
      "name": "grantRole",
      "outputs": [],
      "stateMutability": "nonpayable",
      "type": "function"
    },
    {
      "inputs": [
        {
          "internalType": "bytes32",
          "name": "role",
          "type": "bytes32"
        },
        {
          "internalType": "address",
          "name": "account",
          "type": "address"
        }
      ],
      "name": "hasRole",
      "outputs": [
        {
          "internalType": "bool",
          "name": "",
          "type": "bool"
        }
      ],
      "stateMutability": "view",
      "type": "function"
    },
    {
      "inputs": [
        {
          "internalType": "address",
          "name": "to",
          "type": "address"
        },
        {
          "internalType": "uint256",
          "name": "amount",
          "type": "uint256"
        }
      ],
      "name": "mint",
      "outputs": [],
      "stateMutability": "nonpayable",
      "type": "function"
    },
    {
      "inputs": [],
      "name": "name",
      "outputs": [
        {
          "internalType": "string",
          "name": "",
          "type": "string"
        }
      ],
      "stateMutability": "view",
      "type": "function"
    },
    {
      "inputs": [
        {
          "internalType": "bytes32",
          "name": "role",
          "type": "bytes32"
        },
        {
          "internalType": "address",
          "name": "callerConfirmation",
          "type": "address"
        }
      ],
      "name": "renounceRole",
      "outputs": [],
      "stateMutability": "nonpayable",
      "type": "function"
    },
    {
      "inputs": [
        {
          "internalType": "bytes32",
          "name": "role",
          "type": "bytes32"
        },
        {
          "internalType": "address",
          "name": "account",
          "type": "address"
        }
      ],
      "name": "revokeRole",
      "outputs": [],
      "stateMutability": "nonpayable",
      "type": "function"
    },
    {
      "inputs": [
        {
          "internalType": "bytes4",
          "name": "interfaceId",
          "type": "bytes4"
        }
      ],
      "name": "supportsInterface",
      "outputs": [
        {
          "internalType": "bool",
          "name": "",
          "type": "bool"
        }
      ],
      "stateMutability": "view",
      "type": "function"
    },
    {
      "inputs": [],
      "name": "symbol",
      "outputs": [
        {
          "internalType": "string",
          "name": "",
          "type": "string"
        }
      ],
      "stateMutability": "view",
      "type": "function"
    },
    {
      "inputs": [],
      "name": "totalSupply",
      "outputs": [
        {
          "internalType": "uint256",
          "name": "",
          "type": "uint256"
        }
      ],
      "stateMutability": "view",
      "type": "function"
    },
    {
      "inputs": [
        {
          "internalType": "address",
          "name": "to",
          "type": "address"
        },
        {
          "internalType": "uint256",
          "name": "value",
          "type": "uint256"
        }
      ],
      "name": "transfer",
      "outputs": [
        {
          "internalType": "bool",
          "name": "",
          "type": "bool"
        }
      ],
      "stateMutability": "nonpayable",
      "type": "function"
    },
    {
      "inputs": [
        {
          "internalType": "address",
          "name": "from",
          "type": "address"
        },
        {
          "internalType": "address",
          "name": "to",
          "type": "address"
        },
        {
          "internalType": "uint256",
          "name": "value",
          "type": "uint256"
        }
      ],
      "name": "transferFrom",
      "outputs": [
        {
          "internalType": "bool",
          "name": "",
          "type": "bool"
        }
      ],
      "stateMutability": "nonpayable",
      "type": "function"
    }
  ],
  "bytecode": "0x60806040523480156200001157600080fd5b50604051620013df380380620013df833981016040819052620000349162000213565b818160036200004483826200030c565b5060046200005382826200030c565b5062000065915060009050336200009b565b50620000927f9f2df0fed2c77648de5860a4cc508cd0818c85b8b8a1ab4ceeef8d981c8956a6336200009b565b505050620003d8565b60008281526005602090815260408083206001600160a01b038516845290915281205460ff16620001445760008381526005602090815260408083206001600160a01b03861684529091529020805460ff19166001179055620000fb3390565b6001600160a01b0316826001600160a01b0316847f2f8788117e7eff1d82e926ec794901d17c78024a50270940304540a733656f0d60405160405180910390a450600162000148565b5060005b92915050565b634e487b7160e01b600052604160045260246000fd5b600082601f8301126200017657600080fd5b81516001600160401b03808211156200019357620001936200014e565b604051601f8301601f19908116603f01168101908282118183101715620001be57620001be6200014e565b81604052838152602092508683858801011115620001db57600080fd5b600091505b83821015620001ff5785820183015181830184015290820190620001e0565b600093810190920192909252949350505050565b600080604083850312156200022757600080fd5b82516001600160401b03808211156200023f57600080fd5b6200024d8683870162000164565b935060208501519150808211156200026457600080fd5b50620002738582860162000164565b9150509250929050565b600181811c908216806200029257607f821691505b602082108103620002b357634e487b7160e01b600052602260045260246000fd5b50919050565b601f8211156200030757600081815260208120601f850160051c81016020861015620002e25750805b601f850160051c820191505b818110156200030357828155600101620002ee565b5050505b505050565b81516001600160401b038111156200032857620003286200014e565b62000340816200033984546200027d565b84620002b9565b602080601f8311600181146200037857600084156200035f5750858301515b600019600386901b1c1916600185901b17855562000303565b600085815260208120601f198616915b82811015620003a95788860151825594840194600190910190840162000388565b5085821015620003c85787850151600019600388901b60f8161c191681555b5050505050600190811b01905550565b610ff780620003e86000396000f3fe608060405234801561001057600080fd5b506004361061012c5760003560e01c806368573107116100ad578063a9059cbb11610071578063a9059cbb14610272578063bb4d443614610285578063d539139314610298578063d547741f146102bf578063dd62ed3e146102d257600080fd5b8063685731071461021357806370a082311461022657806391d148541461024f57806395d89b4114610262578063a217fddf1461026a57600080fd5b8063248a9ca3116100f4578063248a9ca3146101a65780632f2ff15d146101c9578063313ce567146101de57806336568abe146101ed57806340c10f191461020057600080fd5b806301ffc9a71461013157806306fdde0314610159578063095ea7b31461016e57806318160ddd1461018157806323b872dd14610193575b600080fd5b61014461013f366004610c61565b61030b565b60405190151581526020015b60405180910390f35b61016161031c565b6040516101509190610c92565b61014461017c366004610cfc565b6103ae565b6002545b604051908152602001610150565b6101446101a1366004610d26565b6103c6565b6101856101b4366004610d62565b60009081526005602052604090206001015490565b6101dc6101d7366004610d7b565b6103ea565b005b60405160128152602001610150565b6101dc6101fb366004610d7b565b610415565b6101dc61020e366004610cfc565b61044d565b6101dc610221366004610df3565b610516565b610185610234366004610e5f565b6001600160a01b031660009081526020819052604090205490565b61014461025d366004610d7b565b610749565b610161610774565b610185600081565b610144610280366004610cfc565b610783565b610185610293366004610e5f565b610791565b6101857f9f2df0fed2c77648de5860a4cc508cd0818c85b8b8a1ab4ceeef8d981c8956a681565b6101dc6102cd366004610d7b565b6107af565b6101856102e0366004610e7a565b6001600160a01b03918216600090815260016020908152604080832093909416825291909152205490565b6000610316826107d4565b92915050565b60606003805461032b90610ea4565b80601f016020809104026020016040519081016040528092919081815260200182805461035790610ea4565b80156103a45780601f10610379576101008083540402835291602001916103a4565b820191906000526020600020905b81548152906001019060200180831161038757829003601f168201915b5050505050905090565b6000336103bc818585610809565b5060019392505050565b6000336103d4858285610816565b6103df85858561088f565b506001949350505050565b600082815260056020526040902060010154610405816108ee565b61040f83836108fb565b50505050565b6001600160a01b038116331461043e5760405163334bd91960e11b815260040160405180910390fd5b610448828261098f565b505050565b7f9f2df0fed2c77648de5860a4cc508cd0818c85b8b8a1ab4ceeef8d981c8956a6610477816108ee565b6001600160a01b0383166104a65760405162461bcd60e51b815260040161049d90610ede565b60405180910390fd5b600082116104c65760405162461bcd60e51b815260040161049d90610f21565b6104d083836109fc565b60405182815233906001600160a01b038516907f3f47fcbe69412929519a02285eca7825dc1f358380784249a50ab40a7c34d542906020015b60405180910390a3505050565b7f9f2df0fed2c77648de5860a4cc508cd0818c85b8b8a1ab4ceeef8d981c8956a6610540816108ee565b83821461058f5760405162461bcd60e51b815260206004820152601e60248201527f4943474f56543a20417272617973206c656e677468206d69736d617463680000604482015260640161049d565b836105d35760405162461bcd60e51b81526020600482015260146024820152734943474f56543a20456d7074792061727261797360601b604482015260640161049d565b60005b848110156107415760008686838181106105f2576105f2610f69565b90506020020160208101906106079190610e5f565b6001600160a01b03160361062d5760405162461bcd60e51b815260040161049d90610ede565b600084848381811061064157610641610f69565b90506020020135116106655760405162461bcd60e51b815260040161049d90610f21565b6106ad86868381811061067a5761067a610f69565b905060200201602081019061068f9190610e5f565b8585848181106106a1576106a1610f69565b905060200201356109fc565b338686838181106106c0576106c0610f69565b90506020020160208101906106d59190610e5f565b6001600160a01b03167f3f47fcbe69412929519a02285eca7825dc1f358380784249a50ab40a7c34d54286868581811061071157610711610f69565b9050602002013560405161072791815260200190565b60405180910390a38061073981610f95565b9150506105d6565b505050505050565b60009182526005602090815260408084206001600160a01b0393909316845291905290205460ff1690565b60606004805461032b90610ea4565b6000336103bc81858561088f565b6001600160a01b038116600090815260208190526040812054610316565b6000828152600560205260409020600101546107ca816108ee565b61040f838361098f565b60006001600160e01b03198216637965db0b60e01b148061031657506301ffc9a760e01b6001600160e01b0319831614610316565b6104488383836001610a36565b6001600160a01b0383811660009081526001602090815260408083209386168352929052205460001981101561040f578181101561088057604051637dc7a0d960e11b81526001600160a01b0384166004820152602481018290526044810183905260640161049d565b61040f84848484036000610a36565b6001600160a01b0383166108b957604051634b637e8f60e11b81526000600482015260240161049d565b6001600160a01b0382166108e35760405163ec442f0560e01b81526000600482015260240161049d565b610448838383610b0b565b6108f88133610c28565b50565b60006109078383610749565b6109875760008381526005602090815260408083206001600160a01b03861684529091529020805460ff1916600117905561093f3390565b6001600160a01b0316826001600160a01b0316847f2f8788117e7eff1d82e926ec794901d17c78024a50270940304540a733656f0d60405160405180910390a4506001610316565b506000610316565b600061099b8383610749565b156109875760008381526005602090815260408083206001600160a01b0386168085529252808320805460ff1916905551339286917ff6391f5c32d9c69d2a47ea670b442974b53935d1edc7fd64eb21e047a839171b9190a4506001610316565b6001600160a01b038216610a265760405163ec442f0560e01b81526000600482015260240161049d565b610a3260008383610b0b565b5050565b6001600160a01b038416610a605760405163e602df0560e01b81526000600482015260240161049d565b6001600160a01b038316610a8a57604051634a1406b160e11b81526000600482015260240161049d565b6001600160a01b038085166000908152600160209081526040808320938716835292905220829055801561040f57826001600160a01b0316846001600160a01b03167f8c5be1e5ebec7d5bd14f71427d1e84f3dd0314c0f7b2291e5b200ac8c7c3b92584604051610afd91815260200190565b60405180910390a350505050565b6001600160a01b038316610b36578060026000828254610b2b9190610fae565b90915550610ba89050565b6001600160a01b03831660009081526020819052604090205481811015610b895760405163391434e360e21b81526001600160a01b0385166004820152602481018290526044810183905260640161049d565b6001600160a01b03841660009081526020819052604090209082900390555b6001600160a01b038216610bc457600280548290039055610be3565b6001600160a01b03821660009081526020819052604090208054820190555b816001600160a01b0316836001600160a01b03167fddf252ad1be2c89b69c2b068fc378daa952ba7f163c4a11628f55a4df523b3ef8360405161050991815260200190565b610c328282610749565b610a325760405163e2517d3f60e01b81526001600160a01b03821660048201526024810183905260440161049d565b600060208284031215610c7357600080fd5b81356001600160e01b031981168114610c8b57600080fd5b9392505050565b600060208083528351808285015260005b81811015610cbf57858101830151858201604001528201610ca3565b506000604082860101526040601f19601f8301168501019250505092915050565b80356001600160a01b0381168114610cf757600080fd5b919050565b60008060408385031215610d0f57600080fd5b610d1883610ce0565b946020939093013593505050565b600080600060608486031215610d3b57600080fd5b610d4484610ce0565b9250610d5260208501610ce0565b9150604084013590509250925092565b600060208284031215610d7457600080fd5b5035919050565b60008060408385031215610d8e57600080fd5b82359150610d9e60208401610ce0565b90509250929050565b60008083601f840112610db957600080fd5b50813567ffffffffffffffff811115610dd157600080fd5b6020830191508360208260051b8501011115610dec57600080fd5b9250929050565b60008060008060408587031215610e0957600080fd5b843567ffffffffffffffff80821115610e2157600080fd5b610e2d88838901610da7565b90965094506020870135915080821115610e4657600080fd5b50610e5387828801610da7565b95989497509550505050565b600060208284031215610e7157600080fd5b610c8b82610ce0565b60008060408385031215610e8d57600080fd5b610e9683610ce0565b9150610d9e60208401610ce0565b600181811c90821680610eb857607f821691505b602082108103610ed857634e487b7160e01b600052602260045260246000fd5b50919050565b60208082526023908201527f4943474f56543a2043616e6e6f74206d696e7420746f207a65726f206164647260408201526265737360e81b606082015260800190565b60208082526028908201527f4943474f56543a20416d6f756e74206d7573742062652067726561746572207460408201526768616e207a65726f60c01b606082015260800190565b634e487b7160e01b600052603260045260246000fd5b634e487b7160e01b600052601160045260246000fd5b600060018201610fa757610fa7610f7f565b5060010190565b8082018082111561031657610316610f7f56fea2646970667358221220096181a50960e09600327b6208300aca1e6160b3f9999c41105d8e1554affe4964736f6c63430008140033",
  "linkReferences": {},
  "deployedLinkReferences": {}
}