{
  "_format": "hh-sol-artifact-1",
  "contractName": "GovernanceController",
  "sourceName": "contracts/GovernanceController.sol",
  "abi": [
    {
      "inputs": [
        {
          "internalType": "address",
          "name": "_icgovtToken",
          "type": "address"
        }
      ],
      "stateMutability": "nonpayable",
      "type": "constructor"
    },
    {
      "inputs": [],
      "name": "ReentrancyGuardReentrantCall",
      "type": "error"
    },
    {
      "anonymous": false,
      "inputs": [
        {
          "indexed": true,
          "internalType": "uint256",
          "name": "proposalId",
          "type": "uint256"
        },
        {
          "indexed": true,
          "internalType": "address",
          "name": "proposer",
          "type": "address"
        },
        {
          "indexed": false,
          "internalType": "string",
          "name": "description",
          "type": "string"
        },
        {
          "indexed": false,
          "internalType": "uint256",
          "name": "totalSupplyAtCreation",
          "type": "uint256"
        }
      ],
      "name": "ProposalCreated",
      "type": "event"
    },
    {
      "anonymous": false,
      "inputs": [
        {
          "indexed": true,
          "internalType": "uint256",
          "name": "proposalId",
          "type": "uint256"
        },
        {
          "indexed": false,
          "internalType": "uint256",
          "name": "finalForVotes",
          "type": "uint256"
        },
        {
          "indexed": false,
          "internalType": "uint256",
          "name": "totalSupply",
          "type": "uint256"
        }
      ],
      "name": "ProposalExpired",
      "type": "event"
    },
    {
      "anonymous": false,
      "inputs": [
        {
          "indexed": true,
          "internalType": "uint256",
          "name": "proposalId",
          "type": "uint256"
        },
        {
          "indexed": false,
          "internalType": "uint256",
          "name": "finalAgainstVotes",
          "type": "uint256"
        },
        {
          "indexed": false,
          "internalType": "uint256",
          "name": "totalSupply",
          "type": "uint256"
        }
      ],
      "name": "ProposalFailed",
      "type": "event"
    },
    {
      "anonymous": false,
      "inputs": [
        {
          "indexed": true,
          "internalType": "uint256",
          "name": "proposalId",
          "type": "uint256"
        },
        {
          "indexed": true,
          "internalType": "address",
          "name": "finalVoter",
          "type": "address"
        },
        {
          "indexed": false,
          "internalType": "uint256",
          "name": "finalForVotes",
          "type": "uint256"
        },
        {
          "indexed": false,
          "internalType": "uint256",
          "name": "totalSupply",
          "type": "uint256"
        }
      ],
      "name": "ProposalPassed",
      "type": "event"
    },
    {
      "anonymous": false,
      "inputs": [
        {
          "indexed": true,
          "internalType": "uint256",
          "name": "proposalId",
          "type": "uint256"
        },
        {
          "indexed": true,
          "internalType": "address",
          "name": "voter",
          "type": "address"
        },
        {
          "indexed": false,
          "internalType": "bool",
          "name": "support",
          "type": "bool"
        },
        {
          "indexed": false,
          "internalType": "uint256",
          "name": "votingPower",
          "type": "uint256"
        }
      ],
      "name": "VoteCast",
      "type": "event"
    },
    {
      "anonymous": false,
      "inputs": [
        {
          "indexed": false,
          "internalType": "uint256",
          "name": "oldPeriod",
          "type": "uint256"
        },
        {
          "indexed": false,
          "internalType": "uint256",
          "name": "newPeriod",
          "type": "uint256"
        },
        {
          "indexed": true,
          "internalType": "address",
          "name": "updatedBy",
          "type": "address"
        }
      ],
      "name": "VotingPeriodUpdated",
      "type": "event"
    },
    {
      "inputs": [],
      "name": "BASIS_POINTS",
      "outputs": [
        {
          "internalType": "uint256",
          "name": "",
          "type": "uint256"
        }
      ],
      "stateMutability": "view",
      "type": "function"
    },
    {
      "inputs": [],
      "name": "MAX_VOTING_PERIOD",
      "outputs": [
        {
          "internalType": "uint256",
          "name": "",
          "type": "uint256"
        }
      ],
      "stateMutability": "view",
      "type": "function"
    },
    {
      "inputs": [],
      "name": "MIN_VOTING_PERIOD",
      "outputs": [
        {
          "internalType": "uint256",
          "name": "",
          "type": "uint256"
        }
      ],
      "stateMutability": "view",
      "type": "function"
    },
    {
      "inputs": [],
      "name": "REQUIRED_PERCENTAGE",
      "outputs": [
        {
          "internalType": "uint256",
          "name": "",
          "type": "uint256"
        }
      ],
      "stateMutability": "view",
      "type": "function"
    },
    {
      "inputs": [
        {
          "internalType": "string",
          "name": "_description",
          "type": "string"
        }
      ],
      "name": "createProposal",
      "outputs": [
        {
          "internalType": "uint256",
          "name": "proposalId",
          "type": "uint256"
        }
      ],
      "stateMutability": "nonpayable",
      "type": "function"
    },
    {
      "inputs": [
        {
          "internalType": "uint256",
          "name": "_proposalId",
          "type": "uint256"
        }
      ],
      "name": "expireProposal",
      "outputs": [],
      "stateMutability": "nonpayable",
      "type": "function"
    },
    {
      "inputs": [],
      "name": "getActiveProposals",
      "outputs": [
        {
          "internalType": "uint256[]",
          "name": "",
          "type": "uint256[]"
        }
      ],
      "stateMutability": "view",
      "type": "function"
    },
    {
      "inputs": [],
      "name": "getExpiredProposals",
      "outputs": [
        {
          "internalType": "uint256[]",
          "name": "",
          "type": "uint256[]"
        }
      ],
      "stateMutability": "view",
      "type": "function"
    },
    {
      "inputs": [],
      "name": "getFailedProposals",
      "outputs": [
        {
          "internalType": "uint256[]",
          "name": "",
          "type": "uint256[]"
        }
      ],
      "stateMutability": "view",
      "type": "function"
    },
    {
      "inputs": [],
      "name": "getPassedProposals",
      "outputs": [
        {
          "internalType": "uint256[]",
          "name": "",
          "type": "uint256[]"
        }
      ],
      "stateMutability": "view",
      "type": "function"
    },
    {
      "inputs": [
        {
          "internalType": "uint256",
          "name": "_proposalId",
          "type": "uint256"
        }
      ],
      "name": "getProposal",
      "outputs": [
        {
          "internalType": "address",
          "name": "proposer",
          "type": "address"
        },
        {
          "internalType": "string",
          "name": "description",
          "type": "string"
        },
        {
          "internalType": "uint256",
          "name": "forVotes",
          "type": "uint256"
        },
        {
          "internalType": "uint256",
          "name": "againstVotes",
          "type": "uint256"
        },
        {
          "internalType": "bool",
          "name": "passed",
          "type": "bool"
        },
        {
          "internalType": "bool",
          "name": "failed",
          "type": "bool"
        },
        {
          "internalType": "bool",
          "name": "expired",
          "type": "bool"
        },
        {
          "internalType": "uint256",
          "name": "createdAt",
          "type": "uint256"
        },
        {
          "internalType": "uint256",
          "name": "passedAt",
          "type": "uint256"
        },
        {
          "internalType": "uint256",
          "name": "votingDeadline",
          "type": "uint256"
        },
        {
          "internalType": "uint256",
          "name": "totalSupplyAtCreation",
          "type": "uint256"
        }
      ],
      "stateMutability": "view",
      "type": "function"
    },
    {
      "inputs": [
        {
          "internalType": "uint256",
          "name": "_proposalId",
          "type": "uint256"
        }
      ],
      "name": "getProposalAgainstVotes",
      "outputs": [
        {
          "internalType": "uint256",
          "name": "",
          "type": "uint256"
        }
      ],
      "stateMutability": "view",
      "type": "function"
    },
    {
      "inputs": [],
      "name": "getProposalCount",
      "outputs": [
        {
          "internalType": "uint256",
          "name": "",
          "type": "uint256"
        }
      ],
      "stateMutability": "view",
      "type": "function"
    },
    {
      "inputs": [
        {
          "internalType": "uint256",
          "name": "_proposalId",
          "type": "uint256"
        }
      ],
      "name": "getProposalVoteCounts",
      "outputs": [
        {
          "internalType": "uint256",
          "name": "forVotes",
          "type": "uint256"
        },
        {
          "internalType": "uint256",
          "name": "againstVotes",
          "type": "uint256"
        }
      ],
      "stateMutability": "view",
      "type": "function"
    },
    {
      "inputs": [
        {
          "internalType": "uint256",
          "name": "_proposalId",
          "type": "uint256"
        }
      ],
      "name": "getProposalVotes",
      "outputs": [
        {
          "internalType": "uint256",
          "name": "",
          "type": "uint256"
        }
      ],
      "stateMutability": "view",
      "type": "function"
    },
    {
      "inputs": [
        {
          "internalType": "uint256",
          "name": "_proposalId",
          "type": "uint256"
        }
      ],
      "name": "getRemainingVotingTime",
      "outputs": [
        {
          "internalType": "uint256",
          "name": "",
          "type": "uint256"
        }
      ],
      "stateMutability": "view",
      "type": "function"
    },
    {
      "inputs": [
        {
          "internalType": "uint256",
          "name": "_proposalId",
          "type": "uint256"
        }
      ],
      "name": "getRequiredVotingPower",
      "outputs": [
        {
          "internalType": "uint256",
          "name": "",
          "type": "uint256"
        }
      ],
      "stateMutability": "view",
      "type": "function"
    },
    {
      "inputs": [],
      "name": "getTotalVotingPower",
      "outputs": [
        {
          "internalType": "uint256",
          "name": "",
          "type": "uint256"
        }
      ],
      "stateMutability": "view",
      "type": "function"
    },
    {
      "inputs": [
        {
          "internalType": "uint256",
          "name": "_proposalId",
          "type": "uint256"
        },
        {
          "internalType": "address",
          "name": "_voter",
          "type": "address"
        }
      ],
      "name": "getVoterInfo",
      "outputs": [
        {
          "internalType": "bool",
          "name": "voterHasVoted",
          "type": "bool"
        },
        {
          "internalType": "bool",
          "name": "support",
          "type": "bool"
        },
        {
          "internalType": "uint256",
          "name": "votingPower",
          "type": "uint256"
        }
      ],
      "stateMutability": "view",
      "type": "function"
    },
    {
      "inputs": [
        {
          "internalType": "address",
          "name": "_voter",
          "type": "address"
        }
      ],
      "name": "getVotingPower",
      "outputs": [
        {
          "internalType": "uint256",
          "name": "",
          "type": "uint256"
        }
      ],
      "stateMutability": "view",
      "type": "function"
    },
    {
      "inputs": [
        {
          "internalType": "uint256",
          "name": "_proposalId",
          "type": "uint256"
        }
      ],
      "name": "hasProposalFailed",
      "outputs": [
        {
          "internalType": "bool",
          "name": "",
          "type": "bool"
        }
      ],
      "stateMutability": "view",
      "type": "function"
    },
    {
      "inputs": [
        {
          "internalType": "uint256",
          "name": "_proposalId",
          "type": "uint256"
        }
      ],
      "name": "hasProposalPassed",
      "outputs": [
        {
          "internalType": "bool",
          "name": "",
          "type": "bool"
        }
      ],
      "stateMutability": "view",
      "type": "function"
    },
    {
      "inputs": [
        {
          "internalType": "uint256",
          "name": "",
          "type": "uint256"
        },
        {
          "internalType": "address",
          "name": "",
          "type": "address"
        }
      ],
      "name": "hasVoted",
      "outputs": [
        {
          "internalType": "bool",
          "name": "",
          "type": "bool"
        }
      ],
      "stateMutability": "view",
      "type": "function"
    },
    {
      "inputs": [],
      "name": "icgovtToken",
      "outputs": [
        {
          "internalType": "contract IICGOVT",
          "name": "",
          "type": "address"
        }
      ],
      "stateMutability": "view",
      "type": "function"
    },
    {
      "inputs": [
        {
          "internalType": "uint256",
          "name": "_proposalId",
          "type": "uint256"
        }
      ],
      "name": "isVotingActive",
      "outputs": [
        {
          "internalType": "bool",
          "name": "",
          "type": "bool"
        }
      ],
      "stateMutability": "view",
      "type": "function"
    },
    {
      "inputs": [
        {
          "internalType": "uint256",
          "name": "",
          "type": "uint256"
        }
      ],
      "name": "proposals",
      "outputs": [
        {
          "internalType": "address",
          "name": "proposer",
          "type": "address"
        },
        {
          "internalType": "string",
          "name": "description",
          "type": "string"
        },
        {
          "internalType": "uint256",
          "name": "forVotes",
          "type": "uint256"
        },
        {
          "internalType": "uint256",
          "name": "againstVotes",
          "type": "uint256"
        },
        {
          "internalType": "bool",
          "name": "passed",
          "type": "bool"
        },
        {
          "internalType": "bool",
          "name": "failed",
          "type": "bool"
        },
        {
          "internalType": "bool",
          "name": "expired",
          "type": "bool"
        },
        {
          "internalType": "uint256",
          "name": "createdAt",
          "type": "uint256"
        },
        {
          "internalType": "uint256",
          "name": "passedAt",
          "type": "uint256"
        },
        {
          "internalType": "uint256",
          "name": "votingDeadline",
          "type": "uint256"
        },
        {
          "internalType": "uint256",
          "name": "totalSupplyAtCreation",
          "type": "uint256"
        }
      ],
      "stateMutability": "view",
      "type": "function"
    },
    {
      "inputs": [
        {
          "internalType": "uint256",
          "name": "_newVotingPeriod",
          "type": "uint256"
        }
      ],
      "name": "updateVotingPeriod",
      "outputs": [],
      "stateMutability": "nonpayable",
      "type": "function"
    },
    {
      "inputs": [
        {
          "internalType": "uint256",
          "name": "_proposalId",
          "type": "uint256"
        },
        {
          "internalType": "bool",
          "name": "_support",
          "type": "bool"
        }
      ],
      "name": "vote",
      "outputs": [],
      "stateMutability": "nonpayable",
      "type": "function"
    },
    {
      "inputs": [
        {
          "internalType": "uint256",
          "name": "",
          "type": "uint256"
        },
        {
          "internalType": "address",
          "name": "",
          "type": "address"
        }
      ],
      "name": "voteDirection",
      "outputs": [
        {
          "internalType": "bool",
          "name": "",
          "type": "bool"
        }
      ],
      "stateMutability": "view",
      "type": "function"
    },
    {
      "inputs": [],
      "name": "votingPeriod",
      "outputs": [
        {
          "internalType": "uint256",
          "name": "",
          "type": "uint256"
        }
      ],
      "stateMutability": "view",
      "type": "function"
    },
    {
      "inputs": [
        {
          "internalType": "uint256",
          "name": "",
          "type": "uint256"
        },
        {
          "internalType": "address",
          "name": "",
          "type": "address"
        }
      ],
      "name": "votingPowerUsed",
      "outputs": [
        {
          "internalType": "uint256",
          "name": "",
          "type": "uint256"
        }
      ],
      "stateMutability": "view",
      "type": "function"
    }
  ],
  "bytecode": "0x608060405262093a806006553480156200001857600080fd5b5060405162002663380380620026638339810160408190526200003b91620000e7565b60016000556001600160a01b038116620000c15760405162461bcd60e51b815260206004820152603960248201527f476f7665726e616e6365436f6e74726f6c6c65723a204943474f565420746f6b60448201527f656e2063616e6e6f74206265207a65726f206164647265737300000000000000606482015260840160405180910390fd5b600580546001600160a01b0319166001600160a01b039290921691909117905562000119565b600060208284031215620000fa57600080fd5b81516001600160a01b03811681146200011257600080fd5b9392505050565b61253a80620001296000396000f3fe608060405234801561001057600080fd5b50600436106101e55760003560e01c80639b5251ee1161010f578063c7f758a8116100a2578063e1b526b011610071578063e1b526b01461044b578063e1f1c4a71461045e578063ef00ef4314610467578063fbc759a11461047a57600080fd5b8063c7f758a8146103e8578063c9d27afe146103fb578063cd032b2114610410578063dfd9240d1461043857600080fd5b8063a64e024a116100de578063a64e024a146103b0578063bb2a2297146103ba578063bb4d4436146103cd578063c08cc02d146103e057600080fd5b80639b5251ee1461033c5780639c25e73014610344578063a476fc5114610372578063a4c6d6761461038557600080fd5b806343859632116101875780636414b6a1116101565780636414b6a1146102fb5780636e0045111461030e578063772744b514610321578063999fcae81461033457600080fd5b8063438596321461028f57806347c66140146102cd57806349c2a1a6146102e05780635584c4f9146102f357600080fd5b806311acc1a7116101c357806311acc1a714610249578063215809ca14610251578063283d763f1461025b5780633a63f2871461028657600080fd5b8063013cf08b146101ea57806302a251a31461021d5780630d734cc114610234575b600080fd5b6101fd6101f8366004611f1c565b6104aa565b6040516102149b9a99989796959493929190611f7b565b60405180910390f35b61022660065481565b604051908152602001610214565b61023c6105ad565b6040516102149190611fe8565b61022661081e565b6102266201518081565b610226610269366004612048565b600460209081526000928352604080842090915290825290205481565b61022661138881565b6102bd61029d366004612048565b600260209081526000928352604080842090915290825290205460ff1681565b6040519015158152602001610214565b6102266102db366004611f1c565b610891565b6102266102ee36600461208a565b6108ea565b61023c610c77565b6102bd610309366004611f1c565b610ee7565b6102bd61031c366004611f1c565b610f3b565b6102bd61032f366004611f1c565b610f94565b61023c61102d565b61023c61115f565b6102bd610352366004612048565b600360209081526000928352604080842090915290825290205460ff1681565b610226610380366004611f1c565b611281565b600554610398906001600160a01b031681565b6040516001600160a01b039091168152602001610214565b61022662278d0081565b6102266103c8366004611f1c565b61132a565b6102266103db36600461213b565b61139d565b600154610226565b6101fd6103f6366004611f1c565b611412565b61040e610409366004612156565b611577565b005b61042361041e366004611f1c565b6119e0565b60408051928352602083019190915201610214565b610226610446366004611f1c565b611a59565b61040e610459366004611f1c565b611aa9565b61022661271081565b61040e610475366004611f1c565b611c28565b61048d610488366004612048565b611e94565b604080519315158452911515602084015290820152606001610214565b600181815481106104ba57600080fd5b6000918252602090912060099091020180546001820180546001600160a01b039092169350906104e99061218b565b80601f01602080910402602001604051908101604052809291908181526020018280546105159061218b565b80156105625780601f1061053757610100808354040283529160200191610562565b820191906000526020600020905b81548152906001019060200180831161054557829003601f168201915b505050506002830154600384015460048501546005860154600687015460078801546008909801549697949693955060ff80841695610100850482169562010000909504909116938b565b60606000805b6001548110156106af57600181815481106105d0576105d06121c5565b906000526020600020906009020160040160029054906101000a900460ff168061068a575060018181548110610608576106086121c5565b600091825260209091206004600990920201015460ff1615801561065b57506001818154811061063a5761063a6121c5565b906000526020600020906009020160040160019054906101000a900460ff16155b801561068a575060018181548110610675576106756121c5565b90600052602060002090600902016007015442115b1561069d5781610699816121f1565b9250505b806106a7816121f1565b9150506105b3565b5060008167ffffffffffffffff8111156106cb576106cb612074565b6040519080825280602002602001820160405280156106f4578160200160208202803683370190505b5090506000805b6001548110156108155760018181548110610718576107186121c5565b906000526020600020906009020160040160029054906101000a900460ff16806107d2575060018181548110610750576107506121c5565b600091825260209091206004600990920201015460ff161580156107a3575060018181548110610782576107826121c5565b906000526020600020906009020160040160019054906101000a900460ff16155b80156107d25750600181815481106107bd576107bd6121c5565b90600052602060002090600902016007015442115b1561080357808383815181106107ea576107ea6121c5565b6020908102919091010152816107ff816121f1565b9250505b8061080d816121f1565b9150506106fb565b50909392505050565b600554604080516318160ddd60e01b815290516000926001600160a01b0316916318160ddd9160048083019260209291908290030181865afa158015610868573d6000803e3d6000fd5b505050506040513d601f19601f8201168201806040525081019061088c919061220a565b905090565b60015460009082106108be5760405162461bcd60e51b81526004016108b590612223565b60405180910390fd5b600182815481106108d1576108d16121c5565b9060005260206000209060090201600201549050919050565b6000808251116109565760405162461bcd60e51b815260206004820152603160248201527f476f7665726e616e6365436f6e74726f6c6c65723a204465736372697074696f6044820152706e2063616e6e6f7420626520656d70747960781b60648201526084016108b5565b6005546040516370a0823160e01b81523360048201526000916001600160a01b0316906370a0823190602401602060405180830381865afa15801561099f573d6000803e3d6000fd5b505050506040513d601f19601f820116820180604052508101906109c3919061220a565b11610a405760405162461bcd60e51b815260206004820152604160248201527f476f7665726e616e6365436f6e74726f6c6c65723a204d75737420686f6c642060448201527f4943474f565420746f6b656e7320746f206372656174652070726f706f73616c6064820152607360f81b608482015260a4016108b5565b50600154600654600090610a54904261226c565b90506000600560009054906101000a90046001600160a01b03166001600160a01b03166318160ddd6040518163ffffffff1660e01b8152600401602060405180830381865afa158015610aab573d6000803e3d6000fd5b505050506040513d601f19601f82011682018060405250810190610acf919061220a565b6040805161016081018252338152602081018781526000928201839052606082018390526080820183905260a0820183905260c082018390524260e0830152610100820183905261012082018690526101408201849052600180548082018255935281517fb10e2d527612073b26eecdfd717e6a320cf44b4afac2b0732d9fcbe2b7fa0cf6600990940293840180546001600160a01b0319166001600160a01b039092169190911781559051939450909290917fb10e2d527612073b26eecdfd717e6a320cf44b4afac2b0732d9fcbe2b7fa0cf70190610baf90826122ce565b50604082810151600283015560608301516003830155608083015160048301805460a086015160c087015161ffff1990921693151561ff0019169390931761010093151584021762ff00001916620100009115159190910217905560e08401516005840155830151600683015561012083015160078301556101409092015160089091015551339084907f98120a6aaa04295520ab4e01c6c1235dd316e822cc9ff31db7b3f197366d18bd90610c68908890869061238e565b60405180910390a35050919050565b60606000805b600154811015610d7d5760018181548110610c9a57610c9a6121c5565b600091825260209091206004600990920201015460ff16158015610ced575060018181548110610ccc57610ccc6121c5565b906000526020600020906009020160040160019054906101000a900460ff16155b8015610d28575060018181548110610d0757610d076121c5565b906000526020600020906009020160040160029054906101000a900460ff16155b8015610d58575060018181548110610d4257610d426121c5565b9060005260206000209060090201600701544211155b15610d6b5781610d67816121f1565b9250505b80610d75816121f1565b915050610c7d565b5060008167ffffffffffffffff811115610d9957610d99612074565b604051908082528060200260200182016040528015610dc2578160200160208202803683370190505b5090506000805b6001548110156108155760018181548110610de657610de66121c5565b600091825260209091206004600990920201015460ff16158015610e39575060018181548110610e1857610e186121c5565b906000526020600020906009020160040160019054906101000a900460ff16155b8015610e74575060018181548110610e5357610e536121c5565b906000526020600020906009020160040160029054906101000a900460ff16155b8015610ea4575060018181548110610e8e57610e8e6121c5565b9060005260206000209060090201600701544211155b15610ed55780838381518110610ebc57610ebc6121c5565b602090810291909101015281610ed1816121f1565b9250505b80610edf816121f1565b915050610dc9565b6001546000908210610f0b5760405162461bcd60e51b81526004016108b590612223565b60018281548110610f1e57610f1e6121c5565b600091825260209091206004600990920201015460ff1692915050565b6001546000908210610f5f5760405162461bcd60e51b81526004016108b590612223565b60018281548110610f7257610f726121c5565b6000918252602090912060099091020160040154610100900460ff1692915050565b6001546000908210610fb85760405162461bcd60e51b81526004016108b590612223565b600060018381548110610fcd57610fcd6121c5565b60009182526020909120600990910201600481015490915060ff16158015610fff57506004810154610100900460ff16155b80156110165750600481015462010000900460ff16155b8015611026575080600701544211155b9392505050565b60606000805b6001548110156110945760018181548110611050576110506121c5565b906000526020600020906009020160040160019054906101000a900460ff1615611082578161107e816121f1565b9250505b8061108c816121f1565b915050611033565b5060008167ffffffffffffffff8111156110b0576110b0612074565b6040519080825280602002602001820160405280156110d9578160200160208202803683370190505b5090506000805b60015481101561081557600181815481106110fd576110fd6121c5565b906000526020600020906009020160040160019054906101000a900460ff161561114d5780838381518110611134576111346121c5565b602090810291909101015281611149816121f1565b9250505b80611157816121f1565b9150506110e0565b60606000805b6001548110156111be5760018181548110611182576111826121c5565b600091825260209091206004600990920201015460ff16156111ac57816111a8816121f1565b9250505b806111b6816121f1565b915050611165565b5060008167ffffffffffffffff8111156111da576111da612074565b604051908082528060200260200182016040528015611203578160200160208202803683370190505b5090506000805b6001548110156108155760018181548110611227576112276121c5565b600091825260209091206004600990920201015460ff161561126f5780838381518110611256576112566121c5565b60209081029190910101528161126b816121f1565b9250505b80611279816121f1565b91505061120a565b60015460009082106112a55760405162461bcd60e51b81526004016108b590612223565b6000600183815481106112ba576112ba6121c5565b60009182526020909120600990910201600481015490915060ff16806112e957506004810154610100900460ff165b806112fe5750600481015462010000900460ff165b8061130c5750806007015442115b1561131a5750600092915050565b42816007015461102691906123b0565b600154600090821061134e5760405162461bcd60e51b81526004016108b590612223565b600060018381548110611363576113636121c5565b90600052602060002090600902019050612710611388826008015461138891906123c3565b61139291906123da565b61102690600161226c565b6005546040516370a0823160e01b81526001600160a01b03838116600483015260009216906370a0823190602401602060405180830381865afa1580156113e8573d6000803e3d6000fd5b505050506040513d601f19601f8201168201806040525081019061140c919061220a565b92915050565b6000606060008060008060008060008060006001805490508c106114485760405162461bcd60e51b81526004016108b590612223565b600060018d8154811061145d5761145d6121c5565b6000918252602090912060099091020180546002820154600383015460048401546005850154600686015460078701546008880154600189018054999a506001600160a01b039098169860ff80871696610100810482169662010000909104909116949093909290918a906114d19061218b565b80601f01602080910402602001604051908101604052809291908181526020018280546114fd9061218b565b801561154a5780601f1061151f5761010080835404028352916020019161154a565b820191906000526020600020905b81548152906001019060200180831161152d57829003601f168201915b505050505099509b509b509b509b509b509b509b509b509b509b509b505091939597999b90929496989a50565b60015482106115985760405162461bcd60e51b81526004016108b590612223565b600082815260026020908152604080832033845290915290205460ff161561161f5760405162461bcd60e51b815260206004820152603460248201527f476f7665726e616e6365436f6e74726f6c6c65723a20416c726561647920766f6044820152731d1959081bdb881d1a1a5cc81c1c9bdc1bdcd85b60621b60648201526084016108b5565b6005546040516370a0823160e01b81523360048201526000916001600160a01b0316906370a0823190602401602060405180830381865afa158015611668573d6000803e3d6000fd5b505050506040513d601f19601f8201168201806040525081019061168c919061220a565b9050600081116116fc5760405162461bcd60e51b815260206004820152603560248201527f476f7665726e616e6365436f6e74726f6c6c65723a204d75737420686f6c64206044820152744943474f565420746f6b656e7320746f20766f746560581b60648201526084016108b5565b600060018481548110611711576117116121c5565b60009182526020909120600990910201600481015490915060ff16156117495760405162461bcd60e51b81526004016108b5906123fc565b6004810154610100900460ff16156117735760405162461bcd60e51b81526004016108b590612449565b600481015462010000900460ff161561179e5760405162461bcd60e51b81526004016108b590612496565b80600701544211156117f65760405162461bcd60e51b815260206004820152602d60248201526000805160206124e583398151915260448201526c1a5bd9081a185cc8195b991959609a1b60648201526084016108b5565b600084815260026020908152604080832033808552908352818420805460ff1990811660011790915588855260038452828520828652845282852080548915801591909316179055888552600484528285209185529252909120839055611876578181600201600082825461186b919061226c565b909155506118909050565b8181600301600082825461188a919061226c565b90915550505b60408051841515815260208101849052339186917fcbdf6214089cba887ecbf35a0b6a734589959c9763342c756bb2a80ca2bc9f6e910160405180910390a3600061271061138883600801546118e691906123c3565b6118f091906123da565b6118fb90600161226c565b9050808260020154106119715760048201805460ff1916600117905542600683015560028201546008830154604051339288927f181e377356ac22f62cd32f7d2945ca472a9d668fc3b88a734fc31858273091fa92611964929190918252602082015260400190565b60405180910390a36119d9565b808260030154106119d95760048201805461ff0019166101001790556003820154600883015460405187927f522c6de871555ffba9124da323e04336f8d9ef52e88630c1295af5d1affff0fa926119d092918252602082015260400190565b60405180910390a25b5050505050565b60015460009081908310611a065760405162461bcd60e51b81526004016108b590612223565b60018381548110611a1957611a196121c5565b90600052602060002090600902016002015460018481548110611a3e57611a3e6121c5565b90600052602060002090600902016003015491509150915091565b6001546000908210611a7d5760405162461bcd60e51b81526004016108b590612223565b60018281548110611a9057611a906121c5565b9060005260206000209060090201600301549050919050565b6001548110611aca5760405162461bcd60e51b81526004016108b590612223565b600060018281548110611adf57611adf6121c5565b60009182526020909120600990910201600481015490915060ff1615611b175760405162461bcd60e51b81526004016108b5906123fc565b6004810154610100900460ff1615611b415760405162461bcd60e51b81526004016108b590612449565b600481015462010000900460ff1615611b6c5760405162461bcd60e51b81526004016108b590612496565b80600701544211611bc65760405162461bcd60e51b815260206004820152603060248201526000805160206124e583398151915260448201526f696f64207374696c6c2061637469766560801b60648201526084016108b5565b60048101805462ff00001916620100001790556002810154600882015460405184927f46d84d5f7c42d19fe49db7e9622452c3a79b36723646c5633f9589ca4a5a6a5592611c1c92918252602082015260400190565b60405180910390a25050565b6005546040516370a0823160e01b81523360048201526000916001600160a01b0316906370a0823190602401602060405180830381865afa158015611c71573d6000803e3d6000fd5b505050506040513d601f19601f82011682018060405250810190611c95919061220a565b90506000600560009054906101000a90046001600160a01b03166001600160a01b03166318160ddd6040518163ffffffff1660e01b8152600401602060405180830381865afa158015611cec573d6000803e3d6000fd5b505050506040513d601f19601f82011682018060405250810190611d10919061220a565b90506000612710611d23836103e86123c3565b611d2d91906123da565b905080831015611da7576040805162461bcd60e51b81526020600482015260248101919091527f476f7665726e616e6365436f6e74726f6c6c65723a20496e737566666963696560448201527f6e7420766f74696e6720706f77657220746f2075706461746520706572696f6460648201526084016108b5565b62015180841015611dfe5760405162461bcd60e51b815260206004820152602d60248201526000805160206124e583398151915260448201526c1a5bd9081d1bdbc81cda1bdc9d609a1b60648201526084016108b5565b62278d00841115611e545760405162461bcd60e51b815260206004820152602c60248201526000805160206124e583398151915260448201526b696f6420746f6f206c6f6e6760a01b60648201526084016108b5565b6006805490859055604080518281526020810187905233917f254a9cd2c450aac0d76f65517d6d9ee37ad07baf42b7cb49417eead625bc4ac091016119d0565b60008060006001805490508510611ebd5760405162461bcd60e51b81526004016108b590612223565b50505060008281526002602090815260408083206001600160a01b03949094168084529382528083205485845260038352818420858552835281842054958452600483528184209484529390915290205460ff91821693919092169190565b600060208284031215611f2e57600080fd5b5035919050565b6000815180845260005b81811015611f5b57602081850181015186830182015201611f3f565b506000602082860101526020601f19601f83011685010191505092915050565b6001600160a01b038c16815261016060208201819052600090611fa08382018e611f35565b604084019c909c5250506060810198909852951515608088015293151560a087015291151560c086015260e08501526101008401526101208301526101409091015292915050565b6020808252825182820181905260009190848201906040850190845b8181101561202057835183529284019291840191600101612004565b50909695505050505050565b80356001600160a01b038116811461204357600080fd5b919050565b6000806040838503121561205b57600080fd5b8235915061206b6020840161202c565b90509250929050565b634e487b7160e01b600052604160045260246000fd5b60006020828403121561209c57600080fd5b813567ffffffffffffffff808211156120b457600080fd5b818401915084601f8301126120c857600080fd5b8135818111156120da576120da612074565b604051601f8201601f19908116603f0116810190838211818310171561210257612102612074565b8160405282815287602084870101111561211b57600080fd5b826020860160208301376000928101602001929092525095945050505050565b60006020828403121561214d57600080fd5b6110268261202c565b6000806040838503121561216957600080fd5b823591506020830135801515811461218057600080fd5b809150509250929050565b600181811c9082168061219f57607f821691505b6020821081036121bf57634e487b7160e01b600052602260045260246000fd5b50919050565b634e487b7160e01b600052603260045260246000fd5b634e487b7160e01b600052601160045260246000fd5b600060018201612203576122036121db565b5060010190565b60006020828403121561221c57600080fd5b5051919050565b60208082526029908201527f476f7665726e616e6365436f6e74726f6c6c65723a20496e76616c69642070726040820152681bdc1bdcd85b08125160ba1b606082015260800190565b8082018082111561140c5761140c6121db565b601f8211156122c957600081815260208120601f850160051c810160208610156122a65750805b601f850160051c820191505b818110156122c5578281556001016122b2565b5050505b505050565b815167ffffffffffffffff8111156122e8576122e8612074565b6122fc816122f6845461218b565b8461227f565b602080601f83116001811461233157600084156123195750858301515b600019600386901b1c1916600185901b1785556122c5565b600085815260208120601f198616915b8281101561236057888601518255948401946001909101908401612341565b508582101561237e5787850151600019600388901b60f8161c191681555b5050505050600190811b01905550565b6040815260006123a16040830185611f35565b90508260208301529392505050565b8181038181111561140c5761140c6121db565b808202811582820484141761140c5761140c6121db565b6000826123f757634e487b7160e01b600052601260045260246000fd5b500490565b6020808252602d908201527f476f7665726e616e6365436f6e74726f6c6c65723a2050726f706f73616c206160408201526c1b1c9958591e481c185cdcd959609a1b606082015260800190565b6020808252602d908201527f476f7665726e616e6365436f6e74726f6c6c65723a2050726f706f73616c206160408201526c1b1c9958591e4819985a5b1959609a1b606082015260800190565b6020808252602e908201527f476f7665726e616e6365436f6e74726f6c6c65723a2050726f706f73616c206160408201526d1b1c9958591e48195e1c1a5c995960921b60608201526080019056fe476f7665726e616e6365436f6e74726f6c6c65723a20566f74696e6720706572a26469706673582212208c5bf6b0024c516e140799fe294950a0990f75afb9223470dba0fb783c0bccac64736f6c63430008140033",
  "linkReferences": {},
  "deployedLinkReferences": {}
}