{
  "_format": "hh-sol-artifact-1",
  "contractName": "ICAUT",
  "sourceName": "contracts/ICAUT.sol",
  "abi": [
    {
      "inputs": [
        {
          "internalType": "uint256",
          "name": "_initialSupply",
          "type": "uint256"
        },
        {
          "internalType": "string",
          "name": "_name",
          "type": "string"
        },
        {
          "internalType": "string",
          "name": "_symbol",
          "type": "string"
        }
      ],
      "stateMutability": "nonpayable",
      "type": "constructor"
    },
    {
      "inputs": [],
      "name": "AccessControlBadConfirmation",
      "type": "error"
    },
    {
      "inputs": [
        {
          "internalType": "address",
          "name": "account",
          "type": "address"
        },
        {
          "internalType": "bytes32",
          "name": "neededRole",
          "type": "bytes32"
        }
      ],
      "name": "AccessControlUnauthorizedAccount",
      "type": "error"
    },
    {
      "inputs": [
        {
          "internalType": "address",
          "name": "spender",
          "type": "address"
        },
        {
          "internalType": "uint256",
          "name": "allowance",
          "type": "uint256"
        },
        {
          "internalType": "uint256",
          "name": "needed",
          "type": "uint256"
        }
      ],
      "name": "ERC20InsufficientAllowance",
      "type": "error"
    },
    {
      "inputs": [
        {
          "internalType": "address",
          "name": "sender",
          "type": "address"
        },
        {
          "internalType": "uint256",
          "name": "balance",
          "type": "uint256"
        },
        {
          "internalType": "uint256",
          "name": "needed",
          "type": "uint256"
        }
      ],
      "name": "ERC20InsufficientBalance",
      "type": "error"
    },
    {
      "inputs": [
        {
          "internalType": "address",
          "name": "approver",
          "type": "address"
        }
      ],
      "name": "ERC20InvalidApprover",
      "type": "error"
    },
    {
      "inputs": [
        {
          "internalType": "address",
          "name": "receiver",
          "type": "address"
        }
      ],
      "name": "ERC20InvalidReceiver",
      "type": "error"
    },
    {
      "inputs": [
        {
          "internalType": "address",
          "name": "sender",
          "type": "address"
        }
      ],
      "name": "ERC20InvalidSender",
      "type": "error"
    },
    {
      "inputs": [
        {
          "internalType": "address",
          "name": "spender",
          "type": "address"
        }
      ],
      "name": "ERC20InvalidSpender",
      "type": "error"
    },
    {
      "anonymous": false,
      "inputs": [
        {
          "indexed": true,
          "internalType": "address",
          "name": "owner",
          "type": "address"
        },
        {
          "indexed": true,
          "internalType": "address",
          "name": "spender",
          "type": "address"
        },
        {
          "indexed": false,
          "internalType": "uint256",
          "name": "value",
          "type": "uint256"
        }
      ],
      "name": "Approval",
      "type": "event"
    },
    {
      "anonymous": false,
      "inputs": [
        {
          "indexed": true,
          "internalType": "address",
          "name": "oldController",
          "type": "address"
        },
        {
          "indexed": true,
          "internalType": "address",
          "name": "newController",
          "type": "address"
        }
      ],
      "name": "ICControllerUpdated",
      "type": "event"
    },
    {
      "anonymous": false,
      "inputs": [
        {
          "indexed": true,
          "internalType": "bytes32",
          "name": "role",
          "type": "bytes32"
        },
        {
          "indexed": true,
          "internalType": "bytes32",
          "name": "previousAdminRole",
          "type": "bytes32"
        },
        {
          "indexed": true,
          "internalType": "bytes32",
          "name": "newAdminRole",
          "type": "bytes32"
        }
      ],
      "name": "RoleAdminChanged",
      "type": "event"
    },
    {
      "anonymous": false,
      "inputs": [
        {
          "indexed": true,
          "internalType": "bytes32",
          "name": "role",
          "type": "bytes32"
        },
        {
          "indexed": true,
          "internalType": "address",
          "name": "account",
          "type": "address"
        },
        {
          "indexed": true,
          "internalType": "address",
          "name": "sender",
          "type": "address"
        }
      ],
      "name": "RoleGranted",
      "type": "event"
    },
    {
      "anonymous": false,
      "inputs": [
        {
          "indexed": true,
          "internalType": "bytes32",
          "name": "role",
          "type": "bytes32"
        },
        {
          "indexed": true,
          "internalType": "address",
          "name": "account",
          "type": "address"
        },
        {
          "indexed": true,
          "internalType": "address",
          "name": "sender",
          "type": "address"
        }
      ],
      "name": "RoleRevoked",
      "type": "event"
    },
    {
      "anonymous": false,
      "inputs": [
        {
          "indexed": true,
          "internalType": "address",
          "name": "from",
          "type": "address"
        },
        {
          "indexed": true,
          "internalType": "address",
          "name": "to",
          "type": "address"
        },
        {
          "indexed": false,
          "internalType": "uint256",
          "name": "value",
          "type": "uint256"
        }
      ],
      "name": "Transfer",
      "type": "event"
    },
    {
      "inputs": [],
      "name": "DEFAULT_ADMIN_ROLE",
      "outputs": [
        {
          "internalType": "bytes32",
          "name": "",
          "type": "bytes32"
        }
      ],
      "stateMutability": "view",
      "type": "function"
    },
    {
      "inputs": [],
      "name": "MINTER_ROLE",
      "outputs": [
        {
          "internalType": "bytes32",
          "name": "",
          "type": "bytes32"
        }
      ],
      "stateMutability": "view",
      "type": "function"
    },
    {
      "inputs": [
        {
          "internalType": "address",
          "name": "owner",
          "type": "address"
        },
        {
          "internalType": "address",
          "name": "spender",
          "type": "address"
        }
      ],
      "name": "allowance",
      "outputs": [
        {
          "internalType": "uint256",
          "name": "",
          "type": "uint256"
        }
      ],
      "stateMutability": "view",
      "type": "function"
    },
    {
      "inputs": [
        {
          "internalType": "address",
          "name": "spender",
          "type": "address"
        },
        {
          "internalType": "uint256",
          "name": "value",
          "type": "uint256"
        }
      ],
      "name": "approve",
      "outputs": [
        {
          "internalType": "bool",
          "name": "",
          "type": "bool"
        }
      ],
      "stateMutability": "nonpayable",
      "type": "function"
    },
    {
      "inputs": [
        {
          "internalType": "address",
          "name": "account",
          "type": "address"
        }
      ],
      "name": "balanceOf",
      "outputs": [
        {
          "internalType": "uint256",
          "name": "",
          "type": "uint256"
        }
      ],
      "stateMutability": "view",
      "type": "function"
    },
    {
      "inputs": [
        {
          "internalType": "uint256",
          "name": "value",
          "type": "uint256"
        }
      ],
      "name": "burn",
      "outputs": [],
      "stateMutability": "nonpayable",
      "type": "function"
    },
    {
      "inputs": [
        {
          "internalType": "address",
          "name": "from",
          "type": "address"
        },
        {
          "internalType": "uint256",
          "name": "amount",
          "type": "uint256"
        }
      ],
      "name": "burnFrom",
      "outputs": [],
      "stateMutability": "nonpayable",
      "type": "function"
    },
    {
      "inputs": [],
      "name": "decimals",
      "outputs": [
        {
          "internalType": "uint8",
          "name": "",
          "type": "uint8"
        }
      ],
      "stateMutability": "view",
      "type": "function"
    },
    {
      "inputs": [
        {
          "internalType": "bytes32",
          "name": "role",
          "type": "bytes32"
        }
      ],
      "name": "getRoleAdmin",
      "outputs": [
        {
          "internalType": "bytes32",
          "name": "",
          "type": "bytes32"
        }
      ],
      "stateMutability": "view",
      "type": "function"
    },
    {
      "inputs": [
        {
          "internalType": "bytes32",
          "name": "role",
          "type": "bytes32"
        },
        {
          "internalType": "address",
          "name": "account",
          "type": "address"
        }
      ],
      "name": "grantRole",
      "outputs": [],
      "stateMutability": "nonpayable",
      "type": "function"
    },
    {
      "inputs": [
        {
          "internalType": "bytes32",
          "name": "role",
          "type": "bytes32"
        },
        {
          "internalType": "address",
          "name": "account",
          "type": "address"
        }
      ],
      "name": "hasRole",
      "outputs": [
        {
          "internalType": "bool",
          "name": "",
          "type": "bool"
        }
      ],
      "stateMutability": "view",
      "type": "function"
    },
    {
      "inputs": [],
      "name": "icController",
      "outputs": [
        {
          "internalType": "contract IICController",
          "name": "",
          "type": "address"
        }
      ],
      "stateMutability": "view",
      "type": "function"
    },
    {
      "inputs": [
        {
          "internalType": "address",
          "name": "to",
          "type": "address"
        },
        {
          "internalType": "uint256",
          "name": "amount",
          "type": "uint256"
        }
      ],
      "name": "mint",
      "outputs": [],
      "stateMutability": "nonpayable",
      "type": "function"
    },
    {
      "inputs": [],
      "name": "name",
      "outputs": [
        {
          "internalType": "string",
          "name": "",
          "type": "string"
        }
      ],
      "stateMutability": "view",
      "type": "function"
    },
    {
      "inputs": [
        {
          "internalType": "bytes32",
          "name": "role",
          "type": "bytes32"
        },
        {
          "internalType": "address",
          "name": "callerConfirmation",
          "type": "address"
        }
      ],
      "name": "renounceRole",
      "outputs": [],
      "stateMutability": "nonpayable",
      "type": "function"
    },
    {
      "inputs": [
        {
          "internalType": "bytes32",
          "name": "role",
          "type": "bytes32"
        },
        {
          "internalType": "address",
          "name": "account",
          "type": "address"
        }
      ],
      "name": "revokeRole",
      "outputs": [],
      "stateMutability": "nonpayable",
      "type": "function"
    },
    {
      "inputs": [
        {
          "internalType": "address",
          "name": "_icController",
          "type": "address"
        }
      ],
      "name": "setICController",
      "outputs": [],
      "stateMutability": "nonpayable",
      "type": "function"
    },
    {
      "inputs": [
        {
          "internalType": "bytes4",
          "name": "interfaceId",
          "type": "bytes4"
        }
      ],
      "name": "supportsInterface",
      "outputs": [
        {
          "internalType": "bool",
          "name": "",
          "type": "bool"
        }
      ],
      "stateMutability": "view",
      "type": "function"
    },
    {
      "inputs": [],
      "name": "symbol",
      "outputs": [
        {
          "internalType": "string",
          "name": "",
          "type": "string"
        }
      ],
      "stateMutability": "view",
      "type": "function"
    },
    {
      "inputs": [],
      "name": "totalSupply",
      "outputs": [
        {
          "internalType": "uint256",
          "name": "",
          "type": "uint256"
        }
      ],
      "stateMutability": "view",
      "type": "function"
    },
    {
      "inputs": [
        {
          "internalType": "address",
          "name": "to",
          "type": "address"
        },
        {
          "internalType": "uint256",
          "name": "value",
          "type": "uint256"
        }
      ],
      "name": "transfer",
      "outputs": [
        {
          "internalType": "bool",
          "name": "",
          "type": "bool"
        }
      ],
      "stateMutability": "nonpayable",
      "type": "function"
    },
    {
      "inputs": [
        {
          "internalType": "address",
          "name": "from",
          "type": "address"
        },
        {
          "internalType": "address",
          "name": "to",
          "type": "address"
        },
        {
          "internalType": "uint256",
          "name": "value",
          "type": "uint256"
        }
      ],
      "name": "transferFrom",
      "outputs": [
        {
          "internalType": "bool",
          "name": "",
          "type": "bool"
        }
      ],
      "stateMutability": "nonpayable",
      "type": "function"
    }
  ],
  "bytecode": "0x60806040523480156200001157600080fd5b50604051620016bd380380620016bd833981016040819052620000349162000574565b8181600362000044838262000676565b50600462000053828262000676565b506200006591506000905033620000af565b50620000927f9f2df0fed2c77648de5860a4cc508cd0818c85b8b8a1ab4ceeef8d981c8956a633620000af565b508215620000a657620000a6338462000162565b5050506200078f565b60008281526005602090815260408083206001600160a01b038516845290915281205460ff16620001585760008381526005602090815260408083206001600160a01b03861684529091529020805460ff191660011790556200010f3390565b6001600160a01b0316826001600160a01b0316847f2f8788117e7eff1d82e926ec794901d17c78024a50270940304540a733656f0d60405160405180910390a45060016200015c565b5060005b92915050565b6001600160a01b038216620001925760405163ec442f0560e01b8152600060048201526024015b60405180910390fd5b620001a060008383620001a4565b5050565b6001600160a01b03831615801590620001c557506001600160a01b03821615155b8015620001dc57506006546001600160a01b031615155b156200036a5760065460405163b08ab24560e01b81526001600160a01b0385811660048301529091169063b08ab24590602401602060405180830381865afa1580156200022d573d6000803e3d6000fd5b505050506040513d601f19601f8201168201806040525081019062000253919062000742565b620002a15760405162461bcd60e51b815260206004820152601e60248201527f49434155543a2053656e646572206e6f74204b594320617070726f7665640000604482015260640162000189565b60065460405163b08ab24560e01b81526001600160a01b0384811660048301529091169063b08ab24590602401602060405180830381865afa158015620002ec573d6000803e3d6000fd5b505050506040513d601f19601f8201168201806040525081019062000312919062000742565b6200036a5760405162461bcd60e51b815260206004820152602160248201527f49434155543a20526563697069656e74206e6f74204b594320617070726f76656044820152601960fa1b606482015260840162000189565b620003778383836200037c565b505050565b6001600160a01b038316620003ab5780600260008282546200039f91906200076d565b909155506200041f9050565b6001600160a01b03831660009081526020819052604090205481811015620004005760405163391434e360e21b81526001600160a01b0385166004820152602481018290526044810183905260640162000189565b6001600160a01b03841660009081526020819052604090209082900390555b6001600160a01b0382166200043d576002805482900390556200045c565b6001600160a01b03821660009081526020819052604090208054820190555b816001600160a01b0316836001600160a01b03167fddf252ad1be2c89b69c2b068fc378daa952ba7f163c4a11628f55a4df523b3ef83604051620004a291815260200190565b60405180910390a3505050565b634e487b7160e01b600052604160045260246000fd5b600082601f830112620004d757600080fd5b81516001600160401b0380821115620004f457620004f4620004af565b604051601f8301601f19908116603f011681019082821181831017156200051f576200051f620004af565b816040528381526020925086838588010111156200053c57600080fd5b600091505b8382101562000560578582018301518183018401529082019062000541565b600093810190920192909252949350505050565b6000806000606084860312156200058a57600080fd5b835160208501519093506001600160401b0380821115620005aa57600080fd5b620005b887838801620004c5565b93506040860151915080821115620005cf57600080fd5b50620005de86828701620004c5565b9150509250925092565b600181811c90821680620005fd57607f821691505b6020821081036200061e57634e487b7160e01b600052602260045260246000fd5b50919050565b601f8211156200037757600081815260208120601f850160051c810160208610156200064d5750805b601f850160051c820191505b818110156200066e5782815560010162000659565b505050505050565b81516001600160401b03811115620006925762000692620004af565b620006aa81620006a38454620005e8565b8462000624565b602080601f831160018114620006e25760008415620006c95750858301515b600019600386901b1c1916600185901b1785556200066e565b600085815260208120601f198616915b828110156200071357888601518255948401946001909101908401620006f2565b5085821015620007325787850151600019600388901b60f8161c191681555b5050505050600190811b01905550565b6000602082840312156200075557600080fd5b815180151581146200076657600080fd5b9392505050565b808201808211156200015c57634e487b7160e01b600052601160045260246000fd5b610f1e806200079f6000396000f3fe608060405234801561001057600080fd5b50600436106101425760003560e01c806342966c68116100b857806395d89b411161007c57806395d89b41146102c9578063a217fddf146102d1578063a9059cbb146102d9578063d5391393146102ec578063d547741f14610313578063dd62ed3e1461032657600080fd5b806342966c681461023c5780635bd4354c1461024f57806370a082311461027a57806379cc6790146102a357806391d14854146102b657600080fd5b8063248a9ca31161010a578063248a9ca3146101bc5780632f2ff15d146101df578063313ce567146101f457806333d4630d1461020357806336568abe1461021657806340c10f191461022957600080fd5b806301ffc9a71461014757806306fdde031461016f578063095ea7b31461018457806318160ddd1461019757806323b872dd146101a9575b600080fd5b61015a610155366004610ce0565b61035f565b60405190151581526020015b60405180910390f35b610177610370565b6040516101669190610d11565b61015a610192366004610d7b565b610402565b6002545b604051908152602001610166565b61015a6101b7366004610da5565b61041a565b61019b6101ca366004610de1565b60009081526005602052604090206001015490565b6101f26101ed366004610dfa565b61043e565b005b60405160128152602001610166565b6101f2610211366004610e26565b610469565b6101f2610224366004610dfa565b610535565b6101f2610237366004610d7b565b61056d565b6101f261024a366004610de1565b6105a1565b600654610262906001600160a01b031681565b6040516001600160a01b039091168152602001610166565b61019b610288366004610e26565b6001600160a01b031660009081526020819052604090205490565b6101f26102b1366004610d7b565b6105ae565b61015a6102c4366004610dfa565b6105e2565b61017761060d565b61019b600081565b61015a6102e7366004610d7b565b61061c565b61019b7f9f2df0fed2c77648de5860a4cc508cd0818c85b8b8a1ab4ceeef8d981c8956a681565b6101f2610321366004610dfa565b61062a565b61019b610334366004610e41565b6001600160a01b03918216600090815260016020908152604080832093909416825291909152205490565b600061036a8261064f565b92915050565b60606003805461037f90610e6b565b80601f01602080910402602001604051908101604052809291908181526020018280546103ab90610e6b565b80156103f85780601f106103cd576101008083540402835291602001916103f8565b820191906000526020600020905b8154815290600101906020018083116103db57829003601f168201915b5050505050905090565b600033610410818585610684565b5060019392505050565b600033610428858285610691565b61043385858561070a565b506001949350505050565b60008281526005602052604090206001015461045981610769565b6104638383610773565b50505050565b600061047481610769565b6001600160a01b0382166104e25760405162461bcd60e51b815260206004820152602a60248201527f49434155543a204943436f6e74726f6c6c65722063616e6e6f74206265207a65604482015269726f206164647265737360b01b60648201526084015b60405180910390fd5b600680546001600160a01b038481166001600160a01b0319831681179093556040519116919082907f0cde7abc328d618bc19c1e09b2bae48400a3cf0e1a935d3e298a88dcdf53e14e90600090a3505050565b6001600160a01b038116331461055e5760405163334bd91960e11b815260040160405180910390fd5b6105688282610807565b505050565b7f9f2df0fed2c77648de5860a4cc508cd0818c85b8b8a1ab4ceeef8d981c8956a661059781610769565b6105688383610874565b6105ab33826108ae565b50565b7f9f2df0fed2c77648de5860a4cc508cd0818c85b8b8a1ab4ceeef8d981c8956a66105d881610769565b61056883836108ae565b60009182526005602090815260408084206001600160a01b0393909316845291905290205460ff1690565b60606004805461037f90610e6b565b60003361041081858561070a565b60008281526005602052604090206001015461064581610769565b6104638383610807565b60006001600160e01b03198216637965db0b60e01b148061036a57506301ffc9a760e01b6001600160e01b031983161461036a565b61056883838360016108e4565b6001600160a01b0383811660009081526001602090815260408083209386168352929052205460001981101561046357818110156106fb57604051637dc7a0d960e11b81526001600160a01b038416600482015260248101829052604481018390526064016104d9565b610463848484840360006108e4565b6001600160a01b03831661073457604051634b637e8f60e11b8152600060048201526024016104d9565b6001600160a01b03821661075e5760405163ec442f0560e01b8152600060048201526024016104d9565b6105688383836109b9565b6105ab8133610b7d565b600061077f83836105e2565b6107ff5760008381526005602090815260408083206001600160a01b03861684529091529020805460ff191660011790556107b73390565b6001600160a01b0316826001600160a01b0316847f2f8788117e7eff1d82e926ec794901d17c78024a50270940304540a733656f0d60405160405180910390a450600161036a565b50600061036a565b600061081383836105e2565b156107ff5760008381526005602090815260408083206001600160a01b0386168085529252808320805460ff1916905551339286917ff6391f5c32d9c69d2a47ea670b442974b53935d1edc7fd64eb21e047a839171b9190a450600161036a565b6001600160a01b03821661089e5760405163ec442f0560e01b8152600060048201526024016104d9565b6108aa600083836109b9565b5050565b6001600160a01b0382166108d857604051634b637e8f60e11b8152600060048201526024016104d9565b6108aa826000836109b9565b6001600160a01b03841661090e5760405163e602df0560e01b8152600060048201526024016104d9565b6001600160a01b03831661093857604051634a1406b160e11b8152600060048201526024016104d9565b6001600160a01b038085166000908152600160209081526040808320938716835292905220829055801561046357826001600160a01b0316846001600160a01b03167f8c5be1e5ebec7d5bd14f71427d1e84f3dd0314c0f7b2291e5b200ac8c7c3b925846040516109ab91815260200190565b60405180910390a350505050565b6001600160a01b038316158015906109d957506001600160a01b03821615155b80156109ef57506006546001600160a01b031615155b15610b725760065460405163b08ab24560e01b81526001600160a01b0385811660048301529091169063b08ab24590602401602060405180830381865afa158015610a3e573d6000803e3d6000fd5b505050506040513d601f19601f82011682018060405250810190610a629190610ea5565b610aae5760405162461bcd60e51b815260206004820152601e60248201527f49434155543a2053656e646572206e6f74204b594320617070726f766564000060448201526064016104d9565b60065460405163b08ab24560e01b81526001600160a01b0384811660048301529091169063b08ab24590602401602060405180830381865afa158015610af8573d6000803e3d6000fd5b505050506040513d601f19601f82011682018060405250810190610b1c9190610ea5565b610b725760405162461bcd60e51b815260206004820152602160248201527f49434155543a20526563697069656e74206e6f74204b594320617070726f76656044820152601960fa1b60648201526084016104d9565b610568838383610bb6565b610b8782826105e2565b6108aa5760405163e2517d3f60e01b81526001600160a01b0382166004820152602481018390526044016104d9565b6001600160a01b038316610be1578060026000828254610bd69190610ec7565b90915550610c539050565b6001600160a01b03831660009081526020819052604090205481811015610c345760405163391434e360e21b81526001600160a01b038516600482015260248101829052604481018390526064016104d9565b6001600160a01b03841660009081526020819052604090209082900390555b6001600160a01b038216610c6f57600280548290039055610c8e565b6001600160a01b03821660009081526020819052604090208054820190555b816001600160a01b0316836001600160a01b03167fddf252ad1be2c89b69c2b068fc378daa952ba7f163c4a11628f55a4df523b3ef83604051610cd391815260200190565b60405180910390a3505050565b600060208284031215610cf257600080fd5b81356001600160e01b031981168114610d0a57600080fd5b9392505050565b600060208083528351808285015260005b81811015610d3e57858101830151858201604001528201610d22565b506000604082860101526040601f19601f8301168501019250505092915050565b80356001600160a01b0381168114610d7657600080fd5b919050565b60008060408385031215610d8e57600080fd5b610d9783610d5f565b946020939093013593505050565b600080600060608486031215610dba57600080fd5b610dc384610d5f565b9250610dd160208501610d5f565b9150604084013590509250925092565b600060208284031215610df357600080fd5b5035919050565b60008060408385031215610e0d57600080fd5b82359150610e1d60208401610d5f565b90509250929050565b600060208284031215610e3857600080fd5b610d0a82610d5f565b60008060408385031215610e5457600080fd5b610e5d83610d5f565b9150610e1d60208401610d5f565b600181811c90821680610e7f57607f821691505b602082108103610e9f57634e487b7160e01b600052602260045260246000fd5b50919050565b600060208284031215610eb757600080fd5b81518015158114610d0a57600080fd5b8082018082111561036a57634e487b7160e01b600052601160045260246000fdfea2646970667358221220fa2cc9d3699669ec21c751aec1c20f2c072cf9a4968859f59aae4a58f7e8e05664736f6c63430008140033",
  "linkReferences": {},
  "deployedLinkReferences": {}
}