{
  "_format": "hh-sol-artifact-1",
  "contractName": "VaultAndYield",
  "sourceName": "contracts/VaultAndYield.sol",
  "abi": [
    {
      "inputs": [
        {
          "internalType": "address",
          "name": "_icToken",
          "type": "address"
        }
      ],
      "stateMutability": "nonpayable",
      "type": "constructor"
    },
    {
      "inputs": [],
      "name": "AccessControlBadConfirmation",
      "type": "error"
    },
    {
      "inputs": [
        {
          "internalType": "address",
          "name": "account",
          "type": "address"
        },
        {
          "internalType": "bytes32",
          "name": "neededRole",
          "type": "bytes32"
        }
      ],
      "name": "AccessControlUnauthorizedAccount",
      "type": "error"
    },
    {
      "inputs": [],
      "name": "ReentrancyGuardReentrantCall",
      "type": "error"
    },
    {
      "inputs": [
        {
          "internalType": "address",
          "name": "token",
          "type": "address"
        }
      ],
      "name": "SafeERC20FailedOperation",
      "type": "error"
    },
    {
      "anonymous": false,
      "inputs": [
        {
          "indexed": true,
          "internalType": "bytes32",
          "name": "role",
          "type": "bytes32"
        },
        {
          "indexed": true,
          "internalType": "bytes32",
          "name": "previousAdminRole",
          "type": "bytes32"
        },
        {
          "indexed": true,
          "internalType": "bytes32",
          "name": "newAdminRole",
          "type": "bytes32"
        }
      ],
      "name": "RoleAdminChanged",
      "type": "event"
    },
    {
      "anonymous": false,
      "inputs": [
        {
          "indexed": true,
          "internalType": "bytes32",
          "name": "role",
          "type": "bytes32"
        },
        {
          "indexed": true,
          "internalType": "address",
          "name": "account",
          "type": "address"
        },
        {
          "indexed": true,
          "internalType": "address",
          "name": "sender",
          "type": "address"
        }
      ],
      "name": "RoleGranted",
      "type": "event"
    },
    {
      "anonymous": false,
      "inputs": [
        {
          "indexed": true,
          "internalType": "bytes32",
          "name": "role",
          "type": "bytes32"
        },
        {
          "indexed": true,
          "internalType": "address",
          "name": "account",
          "type": "address"
        },
        {
          "indexed": true,
          "internalType": "address",
          "name": "sender",
          "type": "address"
        }
      ],
      "name": "RoleRevoked",
      "type": "event"
    },
    {
      "anonymous": false,
      "inputs": [
        {
          "indexed": true,
          "internalType": "address",
          "name": "user",
          "type": "address"
        },
        {
          "indexed": true,
          "internalType": "uint256",
          "name": "stakeId",
          "type": "uint256"
        },
        {
          "indexed": false,
          "internalType": "uint256",
          "name": "amount",
          "type": "uint256"
        },
        {
          "indexed": false,
          "internalType": "uint256",
          "name": "duration",
          "type": "uint256"
        },
        {
          "indexed": false,
          "internalType": "uint256",
          "name": "apy",
          "type": "uint256"
        }
      ],
      "name": "Staked",
      "type": "event"
    },
    {
      "anonymous": false,
      "inputs": [
        {
          "indexed": true,
          "internalType": "address",
          "name": "user",
          "type": "address"
        },
        {
          "indexed": true,
          "internalType": "uint256",
          "name": "stakeId",
          "type": "uint256"
        },
        {
          "indexed": false,
          "internalType": "uint256",
          "name": "stakedAmount",
          "type": "uint256"
        },
        {
          "indexed": false,
          "internalType": "uint256",
          "name": "timeStaked",
          "type": "uint256"
        }
      ],
      "name": "Unstaked",
      "type": "event"
    },
    {
      "anonymous": false,
      "inputs": [
        {
          "indexed": true,
          "internalType": "address",
          "name": "user",
          "type": "address"
        },
        {
          "indexed": true,
          "internalType": "uint256",
          "name": "stakeId",
          "type": "uint256"
        },
        {
          "indexed": false,
          "internalType": "uint256",
          "name": "stakedAmount",
          "type": "uint256"
        },
        {
          "indexed": false,
          "internalType": "uint256",
          "name": "rewards",
          "type": "uint256"
        },
        {
          "indexed": false,
          "internalType": "uint256",
          "name": "totalWithdrawn",
          "type": "uint256"
        }
      ],
      "name": "Withdrawn",
      "type": "event"
    },
    {
      "anonymous": false,
      "inputs": [
        {
          "indexed": true,
          "internalType": "address",
          "name": "admin",
          "type": "address"
        },
        {
          "indexed": false,
          "internalType": "uint256",
          "name": "amount",
          "type": "uint256"
        },
        {
          "indexed": false,
          "internalType": "uint256",
          "name": "totalYieldFunds",
          "type": "uint256"
        }
      ],
      "name": "YieldFunded",
      "type": "event"
    },
    {
      "inputs": [],
      "name": "ADMIN_ROLE",
      "outputs": [
        {
          "internalType": "bytes32",
          "name": "",
          "type": "bytes32"
        }
      ],
      "stateMutability": "view",
      "type": "function"
    },
    {
      "inputs": [],
      "name": "BASIS_POINTS",
      "outputs": [
        {
          "internalType": "uint256",
          "name": "",
          "type": "uint256"
        }
      ],
      "stateMutability": "view",
      "type": "function"
    },
    {
      "inputs": [],
      "name": "DEFAULT_ADMIN_ROLE",
      "outputs": [
        {
          "internalType": "bytes32",
          "name": "",
          "type": "bytes32"
        }
      ],
      "stateMutability": "view",
      "type": "function"
    },
    {
      "inputs": [],
      "name": "MIN_UNSTAKE_TIME",
      "outputs": [
        {
          "internalType": "uint256",
          "name": "",
          "type": "uint256"
        }
      ],
      "stateMutability": "view",
      "type": "function"
    },
    {
      "inputs": [],
      "name": "SECONDS_PER_YEAR",
      "outputs": [
        {
          "internalType": "uint256",
          "name": "",
          "type": "uint256"
        }
      ],
      "stateMutability": "view",
      "type": "function"
    },
    {
      "inputs": [
        {
          "internalType": "uint256",
          "name": "_amount",
          "type": "uint256"
        },
        {
          "internalType": "uint256",
          "name": "_duration",
          "type": "uint256"
        }
      ],
      "name": "calculateExpectedRewards",
      "outputs": [
        {
          "internalType": "uint256",
          "name": "",
          "type": "uint256"
        }
      ],
      "stateMutability": "view",
      "type": "function"
    },
    {
      "inputs": [
        {
          "internalType": "uint256",
          "name": "",
          "type": "uint256"
        }
      ],
      "name": "durationToApy",
      "outputs": [
        {
          "internalType": "uint256",
          "name": "",
          "type": "uint256"
        }
      ],
      "stateMutability": "view",
      "type": "function"
    },
    {
      "inputs": [
        {
          "internalType": "address",
          "name": "_token",
          "type": "address"
        },
        {
          "internalType": "uint256",
          "name": "_amount",
          "type": "uint256"
        },
        {
          "internalType": "address",
          "name": "_to",
          "type": "address"
        }
      ],
      "name": "emergencyRecover",
      "outputs": [],
      "stateMutability": "nonpayable",
      "type": "function"
    },
    {
      "inputs": [
        {
          "internalType": "uint256",
          "name": "_amount",
          "type": "uint256"
        }
      ],
      "name": "fundYield",
      "outputs": [],
      "stateMutability": "nonpayable",
      "type": "function"
    },
    {
      "inputs": [
        {
          "internalType": "address",
          "name": "_user",
          "type": "address"
        }
      ],
      "name": "getMaturedStakes",
      "outputs": [
        {
          "internalType": "uint256[]",
          "name": "",
          "type": "uint256[]"
        }
      ],
      "stateMutability": "view",
      "type": "function"
    },
    {
      "inputs": [
        {
          "internalType": "bytes32",
          "name": "role",
          "type": "bytes32"
        }
      ],
      "name": "getRoleAdmin",
      "outputs": [
        {
          "internalType": "bytes32",
          "name": "",
          "type": "bytes32"
        }
      ],
      "stateMutability": "view",
      "type": "function"
    },
    {
      "inputs": [
        {
          "internalType": "address",
          "name": "_user",
          "type": "address"
        },
        {
          "internalType": "uint256",
          "name": "_stakeId",
          "type": "uint256"
        }
      ],
      "name": "getStakeInfo",
      "outputs": [
        {
          "internalType": "uint256",
          "name": "amount",
          "type": "uint256"
        },
        {
          "internalType": "uint256",
          "name": "startTime",
          "type": "uint256"
        },
        {
          "internalType": "uint256",
          "name": "duration",
          "type": "uint256"
        },
        {
          "internalType": "uint256",
          "name": "apy",
          "type": "uint256"
        },
        {
          "internalType": "bool",
          "name": "withdrawn",
          "type": "bool"
        },
        {
          "internalType": "bool",
          "name": "matured",
          "type": "bool"
        },
        {
          "internalType": "uint256",
          "name": "expectedRewards",
          "type": "uint256"
        },
        {
          "internalType": "bool",
          "name": "canUnstake",
          "type": "bool"
        },
        {
          "internalType": "bool",
          "name": "canWithdraw",
          "type": "bool"
        }
      ],
      "stateMutability": "view",
      "type": "function"
    },
    {
      "inputs": [],
      "name": "getSupportedDurations",
      "outputs": [
        {
          "internalType": "uint256[]",
          "name": "durations",
          "type": "uint256[]"
        },
        {
          "internalType": "uint256[]",
          "name": "apys",
          "type": "uint256[]"
        }
      ],
      "stateMutability": "pure",
      "type": "function"
    },
    {
      "inputs": [],
      "name": "getTotalValueLocked",
      "outputs": [
        {
          "internalType": "uint256",
          "name": "",
          "type": "uint256"
        }
      ],
      "stateMutability": "view",
      "type": "function"
    },
    {
      "inputs": [],
      "name": "getTotalYieldFunds",
      "outputs": [
        {
          "internalType": "uint256",
          "name": "",
          "type": "uint256"
        }
      ],
      "stateMutability": "view",
      "type": "function"
    },
    {
      "inputs": [
        {
          "internalType": "address",
          "name": "_user",
          "type": "address"
        }
      ],
      "name": "getUnstakableStakes",
      "outputs": [
        {
          "internalType": "uint256[]",
          "name": "",
          "type": "uint256[]"
        }
      ],
      "stateMutability": "view",
      "type": "function"
    },
    {
      "inputs": [
        {
          "internalType": "address",
          "name": "_user",
          "type": "address"
        }
      ],
      "name": "getUserStakeCount",
      "outputs": [
        {
          "internalType": "uint256",
          "name": "",
          "type": "uint256"
        }
      ],
      "stateMutability": "view",
      "type": "function"
    },
    {
      "inputs": [
        {
          "internalType": "bytes32",
          "name": "role",
          "type": "bytes32"
        },
        {
          "internalType": "address",
          "name": "account",
          "type": "address"
        }
      ],
      "name": "grantRole",
      "outputs": [],
      "stateMutability": "nonpayable",
      "type": "function"
    },
    {
      "inputs": [
        {
          "internalType": "bytes32",
          "name": "role",
          "type": "bytes32"
        },
        {
          "internalType": "address",
          "name": "account",
          "type": "address"
        }
      ],
      "name": "hasRole",
      "outputs": [
        {
          "internalType": "bool",
          "name": "",
          "type": "bool"
        }
      ],
      "stateMutability": "view",
      "type": "function"
    },
    {
      "inputs": [],
      "name": "icToken",
      "outputs": [
        {
          "internalType": "contract IERC20",
          "name": "",
          "type": "address"
        }
      ],
      "stateMutability": "view",
      "type": "function"
    },
    {
      "inputs": [
        {
          "internalType": "bytes32",
          "name": "role",
          "type": "bytes32"
        },
        {
          "internalType": "address",
          "name": "callerConfirmation",
          "type": "address"
        }
      ],
      "name": "renounceRole",
      "outputs": [],
      "stateMutability": "nonpayable",
      "type": "function"
    },
    {
      "inputs": [
        {
          "internalType": "bytes32",
          "name": "role",
          "type": "bytes32"
        },
        {
          "internalType": "address",
          "name": "account",
          "type": "address"
        }
      ],
      "name": "revokeRole",
      "outputs": [],
      "stateMutability": "nonpayable",
      "type": "function"
    },
    {
      "inputs": [
        {
          "internalType": "uint256",
          "name": "_amount",
          "type": "uint256"
        },
        {
          "internalType": "uint256",
          "name": "_duration",
          "type": "uint256"
        }
      ],
      "name": "stake",
      "outputs": [],
      "stateMutability": "nonpayable",
      "type": "function"
    },
    {
      "inputs": [
        {
          "internalType": "bytes4",
          "name": "interfaceId",
          "type": "bytes4"
        }
      ],
      "name": "supportsInterface",
      "outputs": [
        {
          "internalType": "bool",
          "name": "",
          "type": "bool"
        }
      ],
      "stateMutability": "view",
      "type": "function"
    },
    {
      "inputs": [],
      "name": "totalStaked",
      "outputs": [
        {
          "internalType": "uint256",
          "name": "",
          "type": "uint256"
        }
      ],
      "stateMutability": "view",
      "type": "function"
    },
    {
      "inputs": [],
      "name": "totalYieldFunds",
      "outputs": [
        {
          "internalType": "uint256",
          "name": "",
          "type": "uint256"
        }
      ],
      "stateMutability": "view",
      "type": "function"
    },
    {
      "inputs": [
        {
          "internalType": "uint256",
          "name": "_stakeId",
          "type": "uint256"
        }
      ],
      "name": "unstake",
      "outputs": [],
      "stateMutability": "nonpayable",
      "type": "function"
    },
    {
      "inputs": [
        {
          "internalType": "address",
          "name": "",
          "type": "address"
        },
        {
          "internalType": "uint256",
          "name": "",
          "type": "uint256"
        }
      ],
      "name": "userStakes",
      "outputs": [
        {
          "internalType": "uint256",
          "name": "amount",
          "type": "uint256"
        },
        {
          "internalType": "uint256",
          "name": "startTime",
          "type": "uint256"
        },
        {
          "internalType": "uint256",
          "name": "duration",
          "type": "uint256"
        },
        {
          "internalType": "uint256",
          "name": "apy",
          "type": "uint256"
        },
        {
          "internalType": "bool",
          "name": "withdrawn",
          "type": "bool"
        }
      ],
      "stateMutability": "view",
      "type": "function"
    },
    {
      "inputs": [
        {
          "internalType": "uint256",
          "name": "_stakeId",
          "type": "uint256"
        }
      ],
      "name": "withdraw",
      "outputs": [],
      "stateMutability": "nonpayable",
      "type": "function"
    }
  ],
  "bytecode": "0x60806040523480156200001157600080fd5b5060405162001c7338038062001c73833981016040819052620000349162000265565b60016000556001600160a01b038116620000ab5760405162461bcd60e51b815260206004820152602e60248201527f5661756c74416e645969656c643a20494320746f6b656e2063616e6e6f74206260448201526d65207a65726f206164647265737360901b606482015260840160405180910390fd5b600380546001600160a01b0319166001600160a01b038316179055620000d3600033620001ce565b50620001007fa49807205ce4d355092ef5a8a18f56e8913cf4a201fbe287825b095693c2177533620001ce565b505060066020526102bc7fa88d27acda645757b68c1657d9af488d8916b09195b2d5ed71607b41e9020917556103847f3cfd9deccb3331312b98e58da278f8508432988a798a6d1369aeccd8294ed412556104b07f24ad5144b90bb77b33be2c336a80779ec4ee3ca95d955c6fb346d7de3e4f4997556105dc7f13a3af2485a69085966500795aceb08afc9bc34da16acb3c93f61bc360ef4db5556303c267006000526107087f1bad33854b0273a9660864bde7a0a1450e9c41347b2d5cbde2764273829e09f55562000297565b60008281526001602090815260408083206001600160a01b038516845290915281205460ff166200025b5760008381526001602081815260408084206001600160a01b0387168086529252808420805460ff19169093179092559051339286917f2f8788117e7eff1d82e926ec794901d17c78024a50270940304540a733656f0d9190a45060016200025f565b5060005b92915050565b6000602082840312156200027857600080fd5b81516001600160a01b03811681146200029057600080fd5b9392505050565b6119cc80620002a76000396000f3fe608060405234801561001057600080fd5b50600436106101cf5760003560e01c806375b238fc11610104578063b26025aa116100a2578063d547741f11610071578063d547741f1461047a578063e1f1c4a71461048d578063e6a69ab814610496578063e8d6a76f146104a157600080fd5b8063b26025aa1461041a578063b2aaadf014610422578063b5d5b5fa14610435578063b90f71291461047257600080fd5b806391d14854116100de57806391d14854146103c15780639830568b146103d4578063a217fddf146103ff578063b0048de01461040757600080fd5b806375b238fc1461037e5780637b0472f0146103a5578063817b1cd2146103b857600080fd5b80632e1a7d4d116101715780633b521efe1161014b5780633b521efe146102e157806352a3fb1c1461033e57806369d406011461035e578063752ebc7f1461037457600080fd5b80632e1a7d4d146102a85780632f2ff15d146102bb57806336568abe146102ce57600080fd5b80631b545a17116101ad5780631b545a171461023f578063248a9ca3146102685780632669a2741461028c5780632e17de781461029557600080fd5b806301ffc9a7146101d457806304c3b82d146101fc578063086f93a81461022a575b600080fd5b6101e76101e2366004611614565b6104b4565b60405190151581526020015b60405180910390f35b61021c61020a366004611645565b60066020526000908152604090205481565b6040519081526020016101f3565b61023d61023836600461167a565b6104c5565b005b61021c61024d3660046116b6565b6001600160a01b031660009081526002602052604090205490565b61021c610276366004611645565b6000908152600160208190526040909120015490565b61021c60055481565b61023d6102a3366004611645565b61057a565b61023d6102b6366004611645565b610738565b61023d6102c93660046116d1565b610996565b61023d6102dc3660046116d1565b6109bc565b6102f46102ef3660046116fd565b6109f4565b60408051998a5260208a01989098529688019590955260608701939093529015156080860152151560a085015260c0840152151560e08301521515610100820152610120016101f3565b61035161034c3660046116b6565b610b32565b6040516101f39190611762565b610366610ce9565b6040516101f3929190611775565b61021c62093a8081565b61021c7fa49807205ce4d355092ef5a8a18f56e8913cf4a201fbe287825b095693c2177581565b61023d6103b33660046117a3565b610e8f565b61021c60045481565b6101e76103cf3660046116d1565b610ff3565b6003546103e7906001600160a01b031681565b6040516001600160a01b0390911681526020016101f3565b61021c600081565b61023d610415366004611645565b61101e565b60045461021c565b6103516104303660046116b6565b6110ed565b6104486104433660046116fd565b61129b565b6040805195865260208601949094529284019190915260608301521515608082015260a0016101f3565b60055461021c565b61023d6104883660046116d1565b6112ec565b61021c61271081565b61021c6301e1338081565b61021c6104af3660046117a3565b611312565b60006104bf82611383565b92915050565b7fa49807205ce4d355092ef5a8a18f56e8913cf4a201fbe287825b095693c217756104ef816113b8565b6001600160a01b0382166105605760405162461bcd60e51b815260206004820152602d60248201527f5661756c74416e645969656c643a2043616e6e6f74207265636f76657220746f60448201526c207a65726f206164647265737360981b60648201526084015b60405180910390fd5b6105746001600160a01b03851683856113c2565b50505050565b610582611421565b3360009081526002602052604090205481106105b05760405162461bcd60e51b8152600401610557906117c5565b3360009081526002602052604081208054839081106105d1576105d16117fc565b60009182526020909120600590910201600481015490915060ff16156106095760405162461bcd60e51b815260040161055790611812565b62093a80816001015461061c919061186e565b4210156106915760405162461bcd60e51b815260206004820152603960248201527f5661756c74416e645969656c643a204d7573742077616974206174206c65617360448201527f7420372064617973206265666f726520756e7374616b696e67000000000000006064820152608401610557565b6004808201805460ff19166001179055815481549091906000906106b6908490611881565b909155505060018101546000906106cd9042611881565b82546003549192506106ea916001600160a01b03169033906113c2565b81546040805191825260208201839052849133917f204fccf0d92ed8d48f204adb39b2e81e92bad0dedb93f5716ca9478cfb57de00910160405180910390a350506107356001600055565b50565b610740611421565b33600090815260026020526040902054811061076e5760405162461bcd60e51b8152600401610557906117c5565b33600090815260026020526040812080548390811061078f5761078f6117fc565b60009182526020909120600590910201600481015490915060ff16156107c75760405162461bcd60e51b815260040161055790611812565b806002015481600101546107db919061186e565b4210156108365760405162461bcd60e51b8152602060048201526024808201527f5661756c74416e645969656c643a205374616b65206e6f7420796574206d61746044820152631d5c995960e21b6064820152608401610557565b60006108486127106301e13380611894565b60028301546003840154845461085e9190611894565b6108689190611894565b61087291906118ab565b90508060055410156108d65760405162461bcd60e51b815260206004820152602760248201527f5661756c74416e645969656c643a20496e73756666696369656e74207969656c604482015266642066756e647360c81b6064820152608401610557565b6004808301805460ff19166001179055825481549091906000906108fb908490611881565b9250508190555080600560008282546109149190611881565b9091555050815460009061092990839061186e565b600354909150610943906001600160a01b031633836113c2565b825460408051918252602082018490528101829052849033907f94ffd6b85c71b847775c89ef6496b93cee961bdc6ff827fd117f174f06f745ae9060600160405180910390a35050506107356001600055565b600082815260016020819052604090912001546109b2816113b8565b610574838361144b565b6001600160a01b03811633146109e55760405163334bd91960e11b815260040160405180910390fd5b6109ef82826114c4565b505050565b6001600160a01b038216600090815260026020526040812054819081908190819081908190819081908a10610a3b5760405162461bcd60e51b8152600401610557906117c5565b6001600160a01b038b16600090815260026020526040812080548c908110610a6557610a656117fc565b6000918252602090912060059091020180546001820154600283015460038401546004850154939e50919c509a50985060ff1696509050610aa6888a61186e565b4210159450610abb6127106301e13380611894565b600282015460038301548354610ad19190611894565b610adb9190611894565b610ae591906118ab565b935062093a808160010154610afa919061186e565b4210158015610b0e5750600481015460ff16155b9250848015610b225750600481015460ff16155b9150509295985092959850929598565b6001600160a01b038116600090815260026020526040812054606091805b82811015610be2576001600160a01b0385166000908152600260205260408120805483908110610b8257610b826117fc565b60009182526020909120600590910201600481015490915060ff16158015610bbc575062093a808160010154610bb8919061186e565b4210155b15610bcf5782610bcb816118cd565b9350505b5080610bda816118cd565b915050610b50565b5060008167ffffffffffffffff811115610bfe57610bfe6118e6565b604051908082528060200260200182016040528015610c27578160200160208202803683370190505b5090506000805b84811015610cde576001600160a01b0387166000908152600260205260408120805483908110610c6057610c606117fc565b60009182526020909120600590910201600481015490915060ff16158015610c9a575062093a808160010154610c96919061186e565b4210155b15610ccb5781848481518110610cb257610cb26117fc565b602090810291909101015282610cc7816118cd565b9350505b5080610cd6816118cd565b915050610c2e565b509095945050505050565b60408051600580825260c082019092526060918291906020820160a080368337505060408051600580825260c0820190925292945090506020820160a08036833701905050905062278d0082600081518110610d4757610d476117fc565b6020026020010181815250506276a70082600181518110610d6a57610d6a6117fc565b60200260200101818152505062ed4e0082600281518110610d8d57610d8d6117fc565b6020026020010181815250506301e1338082600381518110610db157610db16117fc565b6020026020010181815250506303c2670082600481518110610dd557610dd56117fc565b6020026020010181815250506102bc81600081518110610df757610df76117fc565b60200260200101818152505061038481600181518110610e1957610e196117fc565b6020026020010181815250506104b081600281518110610e3b57610e3b6117fc565b6020026020010181815250506105dc81600381518110610e5d57610e5d6117fc565b60200260200101818152505061070881600481518110610e7f57610e7f6117fc565b6020026020010181815250509091565b610e97611421565b60008211610eb75760405162461bcd60e51b8152600401610557906118fc565b600081815260066020526040902054610ee25760405162461bcd60e51b81526004016105579061194b565b600354610efa906001600160a01b0316333085611531565b60008181526006602090815260408083205433845260028084528285208054845160a0810186528981524281880190815295810189815260608201868152608083018a815260018086018755958b52988a209251600585029093019283559651938201939093559151928201929092559251600384015592516004928301805460ff191691151591909117905581549093869291610f9990849061186e565b90915550506040805185815260208101859052908101839052819033907f9cfd25589d1eb8ad71e342a86a8524e83522e3936c0803048c08f6d9ad974f409060600160405180910390a35050610fef6001600055565b5050565b60009182526001602090815260408084206001600160a01b0393909316845291905290205460ff1690565b7fa49807205ce4d355092ef5a8a18f56e8913cf4a201fbe287825b095693c21775611048816113b8565b611050611421565b600082116110705760405162461bcd60e51b8152600401610557906118fc565b600354611088906001600160a01b0316333085611531565b816005600082825461109a919061186e565b909155505060055460405133917fdb7b77abb0eb382e2e2602ac9ba7958f2faa27aba5ce4e6281e038171a6047ce916110db91868252602082015260400190565b60405180910390a2610fef6001600055565b6001600160a01b038116600090815260026020526040812054606091805b8281101561119e576001600160a01b038516600090815260026020526040812080548390811061113d5761113d6117fc565b60009182526020909120600590910201600481015490915060ff16158015611178575080600201548160010154611174919061186e565b4210155b1561118b5782611187816118cd565b9350505b5080611196816118cd565b91505061110b565b5060008167ffffffffffffffff8111156111ba576111ba6118e6565b6040519080825280602002602001820160405280156111e3578160200160208202803683370190505b5090506000805b84811015610cde576001600160a01b038716600090815260026020526040812080548390811061121c5761121c6117fc565b60009182526020909120600590910201600481015490915060ff16158015611257575080600201548160010154611253919061186e565b4210155b15611288578184848151811061126f5761126f6117fc565b602090810291909101015282611284816118cd565b9350505b5080611293816118cd565b9150506111ea565b600260205281600052604060002081815481106112b757600080fd5b600091825260209091206005909102018054600182015460028301546003840154600490940154929550909350919060ff1685565b60008281526001602081905260409091200154611308816113b8565b61057483836114c4565b60008181526006602052604081205461133d5760405162461bcd60e51b81526004016105579061194b565b60008281526006602052604090205461135c6127106301e13380611894565b836113678387611894565b6113719190611894565b61137b91906118ab565b949350505050565b60006001600160e01b03198216637965db0b60e01b14806104bf57506301ffc9a760e01b6001600160e01b03198316146104bf565b610735813361156a565b6040516001600160a01b038381166024830152604482018390526109ef91859182169063a9059cbb906064015b604051602081830303815290604052915060e01b6020820180516001600160e01b0383818316178352505050506115a3565b60026000540361144457604051633ee5aeb560e01b815260040160405180910390fd5b6002600055565b60006114578383610ff3565b6114bc5760008381526001602081815260408084206001600160a01b0387168086529252808420805460ff19169093179092559051339286917f2f8788117e7eff1d82e926ec794901d17c78024a50270940304540a733656f0d9190a45060016104bf565b5060006104bf565b60006114d08383610ff3565b156114bc5760008381526001602090815260408083206001600160a01b0386168085529252808320805460ff1916905551339286917ff6391f5c32d9c69d2a47ea670b442974b53935d1edc7fd64eb21e047a839171b9190a45060016104bf565b6040516001600160a01b0384811660248301528381166044830152606482018390526105749186918216906323b872dd906084016113ef565b6115748282610ff3565b610fef5760405163e2517d3f60e01b81526001600160a01b038216600482015260248101839052604401610557565b600080602060008451602086016000885af1806115c6576040513d6000823e3d81fd5b50506000513d915081156115de5780600114156115eb565b6001600160a01b0384163b155b1561057457604051635274afe760e01b81526001600160a01b0385166004820152602401610557565b60006020828403121561162657600080fd5b81356001600160e01b03198116811461163e57600080fd5b9392505050565b60006020828403121561165757600080fd5b5035919050565b80356001600160a01b038116811461167557600080fd5b919050565b60008060006060848603121561168f57600080fd5b6116988461165e565b9250602084013591506116ad6040850161165e565b90509250925092565b6000602082840312156116c857600080fd5b61163e8261165e565b600080604083850312156116e457600080fd5b823591506116f46020840161165e565b90509250929050565b6000806040838503121561171057600080fd5b6117198361165e565b946020939093013593505050565b600081518084526020808501945080840160005b838110156117575781518752958201959082019060010161173b565b509495945050505050565b60208152600061163e6020830184611727565b6040815260006117886040830185611727565b828103602084015261179a8185611727565b95945050505050565b600080604083850312156117b657600080fd5b50508035926020909101359150565b6020808252601f908201527f5661756c74416e645969656c643a20496e76616c6964207374616b6520494400604082015260600190565b634e487b7160e01b600052603260045260246000fd5b60208082526026908201527f5661756c74416e645969656c643a205374616b6520616c72656164792077697460408201526534323930bbb760d11b606082015260800190565b634e487b7160e01b600052601160045260246000fd5b808201808211156104bf576104bf611858565b818103818111156104bf576104bf611858565b80820281158282048414176104bf576104bf611858565b6000826118c857634e487b7160e01b600052601260045260246000fd5b500490565b6000600182016118df576118df611858565b5060010190565b634e487b7160e01b600052604160045260246000fd5b6020808252602f908201527f5661756c74416e645969656c643a20416d6f756e74206d75737420626520677260408201526e6561746572207468616e207a65726f60881b606082015260800190565b6020808252602b908201527f5661756c74416e645969656c643a20556e737570706f72746564207374616b6960408201526a373390323ab930ba34b7b760a91b60608201526080019056fea264697066735822122058cc5b1dad29450db16ff505f1d4b76faa0ff5ea38e10e5945bd821630a5c69164736f6c63430008140033",
  "linkReferences": {},
  "deployedLinkReferences": {}
}